:100000000C9465000C9413090C9440090C948D0019
:100010000C948D000C948D000C948D000C948D002C
:100020000C948D000C948D000C948D000C948D001C
:100030000C948D000C94E6060C948D000C948D00AD
:100040000C946D090C948D000C94640B0C94B20B01
:100050000C948D000C948D000C948D000C948D00EC
:100060000C948D000C948D000000000024002700EB
:100070002A0000000000250028002B0000000000DE
:1000800023002600290004040404040404040202DA
:100090000202020203030303030301020408102007
:1000A0004080010204081020010204081020000012
:1000B0000007000201000003040600000000000029
:1000C0000000AA0155061E0DA30111241FBECFEF8B
:1000D000D8E0DEBFCDBF11E0A0E0B1E0E4E7F2E29E
:1000E00002C005900D92A83AB107D9F712E0A8EA2C
:1000F000B1E001C01D92AF3EB107E1F710E0C8ECDE
:10010000D0E004C02297FE010E942911C23CD10711
:10011000C9F70E94740D0C942D110C940000FB0182
:10012000DC0102C001900D9241505040D8F7089573
:10013000FB01DC018D91019080190110D9F3990B1D
:100140000895FB01DC0101900D920020E1F7089574
:10015000DF92EF92FF920F931F937B018C01FB01C3
:100160000995D82EC8010196F7010995982F8D2D74
:100170001F910F91FF90EF90DF900895DF92EF9223
:10018000FF920F931F93D72E7A018C01FA010995E4
:10019000C80101966D2DF70109951F910F91FF90F0
:1001A000EF90DF9008952091C6013091C701223071
:1001B000310591F4FC01EE0FFF1FE80FF91FEE0F60
:1001C000FF1FDF01AC5EBD4F2D913C911197EA5EA0
:1001D000FD4F808191811EC02330310539F5FC012E
:1001E000EE0FFF1FE80FF91FEE0FFF1FDF01AC5EE0
:1001F000BD4F2D913C911197EA5EFD4F8081918119
:1002000028173907A1F42D913C91119714968D91DF
:100210009C9115972817390751F48D919C9140E0D6
:10022000892B09F441E081E0482702C0089540E0AD
:10023000842F08956B3821E0720720E0820720E0C8
:10024000920758F0603E21E0720720E0820720E02C
:100250009207F0F426E030E05DC06D3521E07207D2
:1002600020E0820720E0920758F0643821E072070E
:1002700020E0820720E0920758F425E030E04AC0F1
:100280006F3221E0720720E0820720E0920758F0E9
:10029000663521E0720720E0820720E0920758F4DB
:1002A00024E030E037C0613021E0720720E08207AF
:1002B00020E0920758F0683221E0720720E08207C0
:1002C00020E0920740F423E030E024C0633D710554
:1002D0008105910540F06A3F71058105910540F463
:1002E00022E030E017C0653A71058105910580F084
:1002F0006C3C71058105910518F421E030E00AC0DD
:10030000615D77408040904018F020E030E002C00E
:1003100027E030E0C90108958130910551F46F5F05
:100320007F4F81F489EA91E060E071E00E94AA0FBA
:100330000895892B39F46F5F7F4F21F489EA91E0AA
:100340000E94FF0F089580E090E06FEF7FEF0E9422
:100350008C01089581E090E06FEF7FEF0E948C01A7
:100360000895CF92DF92EF92FF920F931F93DF9346
:10037000CF93CDB7DEB77C01CDB6DEB68091A801B4
:1003800090E02DB73EB7281B390B0FB6F8943EBF4F
:100390000FBE2DBF0DB71EB70F5F1F4F20E030E01F
:1003A00006C0F801E20FF31F10822F5F3F4F28179E
:1003B0003907BCF389EA91E060E071E00E94C40F64
:1003C00088EC92E00E94740C181619069CF4409177
:1003D000A80188EC92E0B80150E00E94E50E89EA9D
:1003E00091E0B8010E94C40FC70169EA71E00E9460
:1003F000F40F05C0C70161E071E00E94AA0FC701B8
:100400000FB6F894DEBE0FBECDBECF91DF911F9127
:100410000F91FF90EF90DF90CF9008950F931F936F
:10042000DF93CF93CDB7DEB727970FB6F894DEBF33
:100430000FBECDBF8E010F5F1F4FC8010E94B101DB
:10044000C80161E071E00E941E0F882309F04EC0D0
:10045000C80160E070E00E94090FC80160E070E030
:100460000E94090FC80160E070E00E94090FC801F6
:1004700060E070E00E94090FFC01808183FF03C0EF
:100480008AE061E002C08AE060E00E94BC0ACE011E
:10049000019660E070E00E94090FFC01808184FFFA
:1004A00003C089E061E002C089E060E00E94BC0A0C
:1004B0008E010F5F1F4FC80160E070E00E94090FBE
:1004C000C80160E070E00E94090FFC01808186FF96
:1004D00003C084E061E002C084E060E00E94BC0AE6
:1004E000CE01019660E070E00E94090FCE010196F6
:1004F0000E94FF0F27960FB6F894DEBF0FBECDBF48
:10050000CF91DF911F910F9108958EE061E00E94DD
:10051000BC0A60ED77E080E090E00E94E9098FE09E
:1005200061E00E94BC0A60ED77E080E090E00E940C
:10053000E90980E161E00E94BC0A60ED77E080E0BB
:1005400090E00E94E90981E161E00E94BC0A60ED4F
:1005500077E080E090E00E94E90982E161E00E949A
:10056000BC0A60ED77E080E090E00E94E90983E159
:1005700061E00E94BC0A60ED77E080E090E00E94BC
:10058000E90984E061E00E94BC0A60ED77E080E068
:1005900090E00E94E90985E061E00E94BC0A60EDFC
:1005A00077E080E090E00E94E90986E061E00E9447
:1005B000BC0A60ED77E080E090E00E94E90987E006
:1005C00061E00E94BC0A60ED77E080E090E00E946C
:1005D000E90988E061E00E94BC0A60ED77E080E014
:1005E00090E00E94E90989E061E00E94BC0A60EDA8
:1005F00077E080E090E00E94E9098AE061E00E94F3
:10060000BC0A60ED77E080E090E00E94E9098BE0B1
:1006100061E00E94BC0A60ED77E080E090E00E941B
:10062000E9098EE060E00E94BC0A60ED77E080E0BE
:1006300090E00E94E9098FE060E00E94BC0A60ED52
:1006400077E080E090E00E94E90980E160E00E94AC
:10065000BC0A60ED77E080E090E00E94E90981E16A
:1006600060E00E94BC0A60ED77E080E090E00E94CC
:10067000E90982E160E00E94BC0A60ED77E080E079
:1006800090E00E94E90983E160E00E94BC0A60ED0D
:1006900077E080E090E00E94E90984E060E00E9459
:1006A000BC0A60ED77E080E090E00E94E90985E017
:1006B00060E00E94BC0A60ED77E080E090E00E947C
:1006C000E90986E060E00E94BC0A60ED77E080E026
:1006D00090E00E94E90987E060E00E94BC0A60EDBA
:1006E00077E080E090E00E94E90988E060E00E9405
:1006F000BC0A60ED77E080E090E00E94E90989E0C3
:1007000060E00E94BC0A60ED77E080E090E00E942B
:10071000E9098AE060E00E94BC0A60ED77E080E0D1
:1007200090E00E94E9098BE060E00E94BC0A089515
:100730000F931F93CF93DF9390E08091260288233D
:1007400009F491E090932602C2EDD1E014E0888193
:100750009981019729F4812F609126020E94BC0A99
:1007600022961F5F1D3099F70AEB11E0C0E0D0E040
:10077000F80180819181181619060CF051C001977B
:1007800091838083C230D10531F1C330D1053CF46F
:10079000209779F0C130D10509F042C013C0C430B0
:1007A000D10559F1C430D105FCF0C530D105C1F5F2
:1007B0002DC08EE00E94100B60E0892B09F461E0EF
:1007C0008EE02CC08FE00E94100B60E0892B09F4B2
:1007D00061E08FE023C080E10E94100B60E0892B74
:1007E00009F461E080E11AC081E10E94100B60E031
:1007F000892B09F461E081E111C082E10E94100BB4
:1008000060E0892B09F461E082E108C083E10E9485
:10081000100B60E0892B09F461E083E10E94BC0ABF
:1008200021960E5F1F4FC630D10509F0A1CFDF9191
:10083000CF911F910F910895EF92FF920F931F9305
:10084000E0908301F0908401009185011091860170
:10085000E114F1040105110551F10E94B50928ECDC
:1008600030E040E050E0E20EF31E041F151FE616D4
:10087000F70608071907A0F460918B0170918C01AD
:1008800080E042E050E00E94DD0810928301109267
:10089000840110928501109286011092B80107C060
:1008A0000E94B509683C71058105910528F3E09027
:1008B0008701F09088010091890110918A01E1146B
:1008C000F1040105110549F10E94B50928EC30E059
:1008D00040E050E0E20EF31E041F151FE616F70677
:1008E0000807190738F00E94B509683C71058105B1
:1008F000910598F460918D0170918E0181E042E044
:1009000050E00E94DD081092870110928801109239
:10091000890110928A011092B9011F910F91FF90E5
:10092000EF9008950E940E020E941C040895CF9239
:10093000DF92EF92FF920F931F93CF93DF936C019F
:100940000E94C309F601EE0FFF1FEE0FFF1FDF012C
:10095000A450BE4F6D937D938D939C9313976D918F
:100960007D918D919C911397EC51FE4FE080F18029
:10097000028113812D913D914D915C9120833183B2
:10098000428353836E197F09800B910B0E941A01D9
:10099000EC01F601EE0FFF1FDF01A05EBD4F8D9150
:1009A0009C911197EC0DFD1DE80FF91FEE0FFF1F35
:1009B000EC5EFD4FD183C0830D90BC91A02D809142
:1009C000C6019091C7010197A817B90719F4A0E0D3
:1009D000B0E001C01196C601880F991FFC01E05ECE
:1009E000FD4FB183A083209719F0C730D105A1F442
:1009F000FC01EC0DFD1DEE0FFF1FDF01AC5EBD4FD6
:100A000011961C921E92EA5EFD4F1182108215967D
:100A10001C921E92149742C0C6010E94D3008130DE
:100A2000E9F50E94B509F601EE0FFF1FEE0FFF1F5B
:100A3000ED57FE4F60837183828393838C2D0E94D8
:100A4000000988EC92E0BE014AE050E00E948D0E61
:100A50008091C8019091C901009749F4CC0FDD1F26
:100A6000C854DE4FC6010196880F991F0EC001972A
:100A700071F4C114D10419F082E090E002C084E066
:100A800090E0CC0FDD1FC854DE4F9983888388EB3C
:100A900091E0C80ED91E81E0F6018083DF91CF91ED
:100AA0001F910F91FF90EF90DF90CF90089580916C
:100AB000B901882321F481E090E00E949704089511
:100AC0008091B801882321F480E090E00E9497048F
:100AD000089588EC92E040E056E960E070E00E9402
:100AE000ED0B88EC92E044E650E060E070E00E949C
:100AF000B30EF8948BE292E062E070E00E949806F8
:100B00009093B1018093B0018BE292E062E070E0DB
:100B10000E9498069093B3018093B2018BE292E019
:100B200062E070E00E9498069093B5018093B40152
:100B30008BE292E062E070E00E9498069093B70129
:100B40008093B60182E060E00E947D0A82E061E06D
:100B50000E94BC0A83E060E00E947D0A83E061E0BD
:100B60000E94BC0A8EE061E00E947D0A8FE061E095
:100B70000E947D0A80E161E00E947D0A81E161E0DE
:100B80000E947D0A82E161E00E947D0A83E161E0CA
:100B90000E947D0A84E061E00E947D0A85E061E0B8
:100BA0000E947D0A86E061E00E947D0A87E061E0A4
:100BB0000E947D0A88E061E00E947D0A89E061E090
:100BC0000E947D0A8AE061E00E947D0A8BE061E07C
:100BD0000E947D0A0E941C040E9485028DE292E020
:100BE00040EE53E964E070E00E9481078DE292E0FC
:100BF00068E973E02FEF3FEF4FEF5FEF0E94890747
:100C00006091B0017091B1018BE292E00E94D00638
:100C10009093C7018093C6010297029780F082E00B
:100C200090E09093C7018093C6016091B0017091EC
:100C3000B1018BE292E042E050E00E94B806609180
:100C4000B6017091B7018BE292E00E94D0069093BA
:100C5000C9018093C801029770F01092C9011092E7
:100C6000C8016091B0017091B1018BE292E040E067
:100C700050E00E94B80681E08093A801789408951E
:100C80009C01F999FECF32BD21BDF89A80B5089537
:100C90009C01F999FECF1FBA32BD21BD60BD0FB6D0
:100CA000F894FA9AF99A0FBE089584E690E090932A
:100CB0002C0280932B02089580918F0190919001D6
:100CC0008617970714F081E0089588EC92E069E0B8
:100CD00071E00E94A00E80E00895FC01809129023D
:100CE00090912A02019690932A0280932902019002
:100CF000F081E02D309719F0E817F90744F488ECFB
:100D000092E063E371E00E94A00E80E0089580917C
:100D10008F01909190018617970714F081E0089554
:100D200088EC92E069E071E00E94A00E80E00895F6
:100D3000CF93DF93C0912702D09128026C0F7D1FC3
:100D4000709328026093270280918F019091900107
:100D5000861797074CF488EC92E069E071E00E94F6
:100D6000A00ED095C195DF4FCE01DF91CF910895B0
:100D70000F931F93CF93DF93EB018A016E5F7F4F39
:100D80000E946D06882339F0CE01B80148E456E090
:100D90000E94BE0081E0DF91CF911F910F910895D5
:100DA000CF93DF93EB016E5F7F4F0E945C06882339
:100DB00019F420E030E006C0CE0160E476E00E9445
:100DC000A8009C01C901DF91CF9108951F920F9255
:100DD0000FB60F9211242F933F934F935F936F930E
:100DE0007F938F939F93AF93BF93EF93FF93E09184
:100DF0003102F09132020995FF91EF91BF91AF91CD
:100E00009F918F917F916F915F914F913F912F9122
:100E10000F900FBE0F901F901895FC01A3E0440F98
:100E2000551F661F771FAA95D1F7403080E05807FD
:100E300081E0680780E0780714F481E010C033E0B7
:100E400075956795579547953A95D1F7403080E06D
:100E5000580781E0680780E078071CF482E082830D
:100E600039C023E075956795579547952A95D1F731
:100E7000403080E0580781E0680780E0780714F48C
:100E800083E0EDCF92E075956795579547959A95D4
:100E9000D1F7403080E0580781E0680780E07807AC
:100EA00014F484E0DCCF82E07595679557954795FB
:100EB0008A95D1F7403080E0580781E0680780E0EC
:100EC000780714F485E0CBCF85E082834FEF5FEFA6
:100ED00060E070E08FB78383F89451834083509330
:100EE00087004093860083818FBF80918100887F37
:100EF00080938100809181009281892B8093810071
:100F000008951092800020E1209381000E940D0737
:100F100008950F931F93CF93DF93EC018B0112166B
:100F200013061406150624F4BA01A9010E940D0740
:100F30001D830C8381E080936F00809181009A81F2
:100F4000892B80938100DF91CF911F910F9108959C
:100F50000F931F93CF93DF93BC018230910510F460
:100F600062E070E0E091ED02F091EE0240E050E0CE
:100F7000A0E0B0E024C08081918186179707D0F06F
:100F80008617970771F482819381109729F0139641
:100F90009C938E9312972CC09093EE028093ED0257
:100FA00027C04115510519F08417950718F48D01D4
:100FB000AC01EF01DF01828193819C01F90130973F
:100FC000D1F641155105F9F0CA01861B970B843003
:100FD000910580F48A819B810115110521F0F801AA
:100FE0009383828304C09093EE028093ED02FE010E
:100FF000329645C0FE01E80FF91F61937193029785
:10100000998388833CC08091EB029091EC02892BFC
:1010100041F480919301909194019093EC0280931C
:10102000EB0240919501509196014115510541F413
:101030004DB75EB78091910190919201481B590B79
:101040002091EB023091EC0224173507B0F4CA016D
:10105000821B930B8617970780F0AB014E5F5F4FA3
:101060008417950750F0420F531F5093EC024093A2
:10107000EB02F9016193719302C0E0E0F0E0CF016F
:10108000DF91CF911F910F910895CF93DF939C0132
:10109000009709F48FC0EC0122971B821A8260919D
:1010A000ED027091EE026115710581F488819981DC
:1010B000820F931F2091EB023091EC022817390721
:1010C00039F5D093EC02C093EB0274C0DB0140E031
:1010D00050E0AC17BD0708F1BB83AA83FE01219144
:1010E0003191E20FF31FAE17BF0779F48D919C91F8
:1010F0001197280F391F2E5F3F4F3983288312968F
:101100008D919C9113979B838A834115510571F4AE
:10111000D093EE02C093ED024DC012968D919C913A
:101120001397AD01009711F0DC01D3CFDA011396CC
:10113000DC93CE931297FA0121913191E20FF31FC4
:10114000CE17DF0769F488819981280F391F2E5F38
:101150003F4FFA01318320838A819B81938382836D
:10116000E0E0F0E0DB0112968D919C9113970097DF
:1011700019F0BC01FD01F6CFAB014E5F5F4FDB0103
:101180008D919C91840F951F2091EB023091EC0280
:101190002817390779F4309729F41092EE0210924B
:1011A000ED0202C013821282425050405093EC0272
:1011B0004093EB02DF91CF910895823000F5E82F44
:1011C000F0E0EE0FFF1FED5CFD4F7183608388231D
:1011D00019F08130A1F408C0809169008C7F842BC4
:1011E00080936900E89A089580916900440F551F23
:1011F000440F551F837F842B80936900E99A0895DB
:10120000823080F4882319F0813021F402C0E898FC
:1012100001C0E998E82FF0E0EE0FFF1FED5CFD4FF5
:101220001182108208951F920F920FB60F9211240F
:101230002F933F934F935F936F937F938F939F93DE
:10124000AF93BF93EF93FF93809133029091340259
:10125000892B29F0E0913302F09134020995FF9136
:10126000EF91BF91AF919F918F917F916F915F911E
:101270004F913F912F910F900FBE0F901F90189597
:101280001F920F920FB60F9211242F933F934F93FB
:101290005F936F937F938F939F93AF93BF93EF93DE
:1012A000FF938091350290913602892B29F0E091CD
:1012B0003502F09136020995FF91EF91BF91AF9100
:1012C0009F918F917F916F915F914F913F912F915E
:1012D0000F900FBE0F901F9018951F920F920FB690
:1012E0000F9211242F933F938F939F93AF93BF93AC
:1012F00080913B0290913C02A0913D02B0913E0250
:1013000030913F020196A11DB11D232F2D5F2D3776
:1013100020F02D570196A11DB11D20933F0280930F
:101320003B0290933C02A0933D02B0933E02809119
:10133000370290913802A0913902B0913A02019699
:10134000A11DB11D8093370290933802A0933902FA
:10135000B0933A02BF91AF919F918F913F912F919E
:101360000F900FBE0F901F9018958FB7F894209193
:101370003B0230913C0240913D0250913E028FBFB2
:10138000B901CA0108959FB7F894209137023091AE
:1013900038024091390250913A0286B5A89B06C0A6
:1013A0008F3F21F02F5F3F4F4F4F5F4F9FBF542F15
:1013B000432F322F2227280F311D411D511D82E05E
:1013C000220F331F441F551F8A95D1F7B901CA0157
:1013D00008959B01AC017FB7F894809137029091FA
:1013E0003802A0913902B0913A0266B5A89B05C0B7
:1013F0006F3F19F00196A11DB11D7FBFBA2FA92F14
:10140000982F8827860F911DA11DB11D62E0880FBE
:10141000991FAA1FBB1F6A95D1F7BC012DC0FFB74A
:10142000F8948091370290913802A0913902B091DE
:101430003A02E6B5A89B05C0EF3F19F00196A11D41
:10144000B11DFFBFBA2FA92F982F88278E0F911D8E
:10145000A11DB11DE2E0880F991FAA1FBB1FEA95CD
:10146000D1F7861B970B885E9340C8F2215030401D
:101470004040504068517C4F2115310541055105D0
:1014800071F60895789484B5826084BD84B58160D6
:1014900084BD85B5826085BD85B5816085BDEEE67C
:1014A000F0E0808181608083E1E8F0E0108280815B
:1014B00082608083808181608083E0E8F0E08081C9
:1014C00081608083E1EBF0E0808184608083E0EBE9
:1014D000F0E0808181608083EAE7F0E080818460D1
:1014E000808380818260808380818160808380812D
:1014F000806880831092C1000895CF93DF93482FB6
:1015000050E0CA0186569F4FFC0134914A575F4F05
:10151000FA018491882369F190E0880F991FFC01FA
:10152000E859FF4FA591B491FC01EE58FF4FC591CA
:10153000D491662351F42FB7F8948C91932F909502
:1015400089238C93888189230BC0623061F42FB783
:10155000F8948C91932F909589238C938881832B79
:1015600088832FBF06C09FB7F8948C91832B8C93F0
:101570009FBFDF91CF910895482F50E0CA01825557
:101580009F4FFC012491CA0186569F4FFC01949104
:101590004A575F4FFA013491332309F440C02223A4
:1015A00051F1233071F0243028F42130A1F02230A1
:1015B00011F514C02630B1F02730C1F02430D9F431
:1015C00004C0809180008F7703C0809180008F7D60
:1015D0008093800010C084B58F7702C084B58F7D62
:1015E00084BD09C08091B0008F7703C08091B000A6
:1015F0008F7D8093B000E32FF0E0EE0FFF1FEE58D9
:10160000FF4FA591B4912FB7F894662321F48C91E4
:101610009095892302C08C91892B8C932FBF0895BC
:10162000682F70E0CB0182559F4FFC012491CB01C4
:1016300086569F4FFC0144916A577F4FFB0194915E
:10164000992319F420E030E03CC0222351F12330EB
:1016500071F0243028F42130A1F0223011F514C0AB
:101660002630B1F02730C1F02430D9F404C0809185
:1016700080008F7703C0809180008F7D80938000F1
:1016800010C084B58F7702C084B58F7D84BD09C03A
:101690008091B0008F7703C08091B0008F7D8093E0
:1016A000B000892F90E0880F991F84589F4FFC014C
:1016B000A591B4918C9120E030E0842311F021E0D9
:1016C00030E0C901089508951F920F920FB60F924E
:1016D00011242F933F934F938F939F93EF93FF93F7
:1016E0008091C00082FD1DC04091C6002091800203
:1016F000309181022F5F3F4F2F73307080918202B3
:10170000909183022817390771F0E0918002F091DF
:101710008102E05CFD4F4083309381022093800280
:1017200002C08091C600FF91EF919F918F914F91E0
:101730003F912F910F900FBE0F901F901895E09141
:10174000D402F091D502E05CFF4F8191919120810C
:101750003181821B930B8F739070892B11F00E9443
:10176000630B08951F920F920FB60F9211242F93BF
:101770003F938F939F93EF93FF932091C4023091F7
:10178000C5028091C6029091C7022817390731F42B
:101790008091C1008F7D8093C10014C0E091C6028A
:1017A000F091C702EC57FD4F20818091C6029091C5
:1017B000C70201968F7390709093C7028093C60200
:1017C0002093C600FF91EF919F918F913F912F91B0
:1017D0000F900FBE0F901F901895AF92BF92DF929F
:1017E000EF92FF920F931F93CF93DF93EC017A0157
:1017F0008B01DD24403081EE580780E0680780E0EF
:10180000780711F0DD24D39491E0A92EB12CEC8956
:10181000FD89DD2069F0C50108A002C0880F991F6D
:101820000A94E2F7808360E079E08DE390E005C000
:10183000108260E874E88EE190E0A80197010E94B0
:1018400005112150304040405040569547953795FE
:10185000279580E12030380720F0DD2011F0DD24CD
:10186000D6CFE889F9893083EA89FB89208319A2D8
:10187000EE89FF89408121E030E0C9010C8C02C073
:10188000880F991F0A94E2F7482B4083EE89FF895D
:101890004081C9010D8C02C0880F991F0A94E2F79C
:1018A000482B4083EE89FF894081C9010E8C02C01C
:1018B000880F991F0A94E2F7482B4083EE89FF892D
:1018C00080810F8C02C0220F331F0A94E2F720950B
:1018D00028232083DF91CF911F910F91FF90EF90EC
:1018E000DF90BF90AF900895DC011C96ED91FC91C4
:1018F0001D97E05CFF4F2191319180819181281BE0
:10190000390B2F733070C9010895DC011C96ED91DD
:10191000FC911D97E05CFF4F20813181E054F04045
:10192000DF01AE5BBF4F8D919C911197281739074E
:1019300019F42FEF3FEF07C08D919C91E80FF91F2D
:101940008081282F30E0C9010895DC011C96ED91BB
:10195000FC911D97E05CFF4F20813181E054F04005
:10196000DF01AE5BBF4F8D919C911197281739070E
:1019700019F42FEF3FEF10C08D919C911197E80F54
:10198000F91F20818D919C91119701968F73907012
:1019900011969C938E9330E0C9010895DC019196D5
:1019A0008C919197882339F05496ED91FC9155973D
:1019B000808186FFF9CF91961C920895CF93DF9393
:1019C000EC01EE85FF85E05CFF4F20813181E05422
:1019D000F0402F5F3F4F2F733070DF01AE5BBF4F82
:1019E0008D919C91119728173907D1F3E05CFF4F37
:1019F00080819181E054F040E80FF91F6083EE850B
:101A0000FF85E05CFF4F31832083EE89FF892081D1
:101A100081E090E00F8C02C0880F991F0A94E2F7D2
:101A2000282B208381E089A3EC89FD898081806453
:101A3000808381E090E0DF91CF9108951092CB02F6
:101A40001092CA0288EE93E0A0E0B0E08093CC024E
:101A50009093CD02A093CE02B093CF028BE991E098
:101A60009093C9028093C80280E492E09093D502DB
:101A70008093D40284E892E09093D7028093D602B8
:101A800085EC90E09093D9028093D80284EC90E0AA
:101A90009093DB028093DA0280EC90E09093DD0279
:101AA0008093DC0281EC90E09093DF028093DE0271
:101AB00082EC90E09093E1028093E00286EC90E06B
:101AC0009093E3028093E20284E08093E40283E057
:101AD0008093E50287E08093E60285E08093E70249
:101AE00081E08093E8020895CF93DF930E94420A39
:101AF0000E946905CFE9DBE00E9492042097E1F3A0
:101B00000E949F0BF9CFCF92DF92EF92FF920F933B
:101B10001F93CF93DF937C016B018A01C0E0D0E07B
:101B20000FC0D6016D916D01D701ED91FC9101902F
:101B3000F081E02DC7010995C80FD91F0150104051
:101B40000115110571F7CE01DF91CF911F910F9112
:101B5000FF90EF90DF90CF900895EF92FF920F9358
:101B60001F938C01DC01ED91FC910190F081E02D3F
:101B70006DE009957C01D801ED91FC910190F08117
:101B8000E02DC8016AE009959C012E0D3F1DC90199
:101B90001F910F91FF90EF900895CF93DF93EC0189
:101BA0006115710519F420E030E00FC0DB010D90E4
:101BB0000020E9F71197A61BB70BE881F981028095
:101BC000F381E02DAD0109959C01C901DF91CF9111
:101BD00008954F925F927F928F929F92AF92BF92A1
:101BE000CF92DF92EF92FF920F931F93DF93CF93E9
:101BF000CDB7DEB7A1970FB6F894DEBF0FBECDBF4D
:101C00002C01742ECB01223008F42AE019A231E213
:101C1000C32ED12CCC0EDD1E822E9924AA24BB24E7
:101C2000672D752FA50194010E94051179018A0184
:101C3000C801B701A50194010E94E610472D461B7B
:101C40000894C108D1084A3014F4405D01C0495CD1
:101C5000F6014083E114F1040105110521F07E2C09
:101C60005F2DC801DDCFC201B6010E94CD0DA19646
:101C70000FB6F894DEBF0FBECDBFCF91DF911F919D
:101C80000F91FF90EF90DF90CF90BF90AF909F901B
:101C90008F907F905F904F900895CF92DF92EF9258
:101CA000FF920F931F93CF93DF93EC016A017B01A7
:101CB0002115310541F4E881F9810190F081E02D91
:101CC000642F09951FC02A303105D1F477FF17C062
:101CD000E881F9810190F081E02D6DE209958C0198
:101CE00044275527BA014C195D096E097F09CE01B9
:101CF0002AE00E94E90D9801280F391F04C02AE04C
:101D00000E94E90D9C01C901DF91CF911F910F91B4
:101D1000FF90EF90DF90CF900895EF92FF920F9396
:101D20001F937B019A010027F7FC0095102FB80143
:101D3000A7010E944D0E1F910F91FF90EF90089503
:101D4000EF92FF920F931F937C010E94CD0D8C01A7
:101D5000C7010E94AD0D080F191FC8011F910F91F7
:101D6000FF90EF900895FC01448355836683778349
:101D70000895CF93DF93EC010E94B50968877987B6
:101D80008A879B87E881F9810680F781E02DCE0163
:101D900009959C0197FF15C00E94B50928853985D2
:101DA0004A855B85621B730B840B950B2C813D81EF
:101DB0004E815F81621773078407950718F32FEF31
:101DC0003FEFC901DF91CF910895CF92DF92EF925B
:101DD000FF920F931F93CF93DF936C018B017A01D6
:101DE000C0E0D0E009C0C6010E94B90E97FD07C04F
:101DF000F80181938F012196CE15DF05A0F3CE0166
:101E0000DF91CF911F910F91FF90EF90DF90CF90D6
:101E10000895FC019B01848195816817790728F456
:101E2000608171816115710529F41092EA026AEEF0
:101E300072E002C0620F731FCB010895DC01FB0149
:101E400014968D919C911597892B31F4611571052C
:101E5000A9F090E0808108C00D90BC91A02D611583
:101E6000710529F490E08C91882349F407C0CD01D5
:101E70000E9498009C0190E0232B09F491E0892FA7
:101E800008950F931F93CF93DF93EC018B016F5F46
:101E90007F4F888199810E940510009711F480E09E
:101EA00005C0998388831B830A8381E0DF91CF91EA
:101EB0001F910F910895CF93DF93EC018881998151
:101EC000892B29F08A819B818617970760F4CE01C0
:101ED0000E94410F882341F08C819D81892B19F448
:101EE000E881F981108281E0DF91CF910895CF934D
:101EF000DF93EC0188819981009711F00E944508D9
:101F0000198218821D821C821B821A82DF91CF9156
:101F10000895EF92FF920F931F93CF93DF93EC01FD
:101F20007B018A01BA010E945B0F882321F4CE0154
:101F30000E94770F07C01D830C8388819981B701A8
:101F40000E94A100CE01DF91CF911F910F91FF90D0
:101F5000EF900895CF93DF93EC01198218821B82D2
:101F60001A821D821C821E826115710551F0DB01EF
:101F70000D900020E9F71197A61BB70BAD010E9449
:101F8000890FDF91CF9108950F931F93182F092F79
:101F90006115710559F0DB010D900020E9F71197EB
:101FA000A61BB70BAD010E94890F02C00E94770FDC
:101FB000812F902F1F910F910895CF93DF93EC0104
:101FC000FB018617970761F06081718161157105CA
:101FD00029F0448155810E94890F02C00E94770F29
:101FE000CE01DF91CF910895FC01118210821382FE
:101FF00012821582148216820E94DD0F0895FC0160
:10200000808191810E94450808956F927F928F92FE
:102010009F92AF92BF92CF92DF92EF92FF920F9377
:102020001F93CF93DF938C01009729F4CB010E947B
:10203000A8078C01BBC08EEFE82E8FEFF82EE00EC4
:10204000F11E4801860E971E8E149F0408F4ACC042
:10205000D7014D915C91119746175707B8F045305D
:10206000510508F4A3C0CA0104978617970708F41E
:102070009DC042505040461B570BF4014193519371
:102080006D937C93CF010E94450890C05B01A41A18
:10209000B50A3801640E751EA091ED02B091EE02F2
:1020A000E0E0F0E0CC24DD2447C0A615B705A9F593
:1020B000CD91DC911197CE0102968A159B0568F1AE
:1020C000CE018A199B09029612962C9112971396AB
:1020D0003C91059758F0F40122833383CA19DB0938
:1020E000D183C083D7016D937C9309C04E5F5F4F4E
:1020F0004C0F5D1FF70151834083C901FC01C114DE
:10210000D10431F0D6011396FC93EE9312974EC092
:10211000F093EE02E093ED0249C08D919C911197EE
:10212000E817F90708F4FC016D0112968C911297DB
:1021300013969C919C01D901109709F0B6CF80911C
:10214000EB029091EC0286159705E9F4E617F70784
:10215000D0F420919501309196012115310541F47B
:102160002DB73EB78091910190919201281B390BB8
:1021700082169306C8F49092EC028092EB02F7016B
:102180007183608313C0CB010E94A807EC01009704
:1021900059F0D7014D915C91B8010E948F00C801A0
:1021A0000E9445088E0102C000E010E0C801DF91E6
:1021B000CF911F910F91FF90EF90DF90CF90BF9044
:1021C000AF909F908F907F906F900895629FD00105
:1021D000739FF001829FE00DF11D649FE00DF11DE2
:1021E000929FF00D839FF00D749FF00D659FF00D91
:1021F0009927729FB00DE11DF91F639FB00DE11D7E
:10220000F91FBD01CF0111240895A1E21A2EAA1BC6
:10221000BB1BFD010DC0AA1FBB1FEE1FFF1FA21796
:10222000B307E407F50720F0A21BB30BE40BF50B93
:10223000661F771F881F991F1A9469F7609570951C
:10224000809590959B01AC01BD01CF010895EE0FE3
:10225000FF1F0590F491E02D099410E0C8ECD0E048
:1022600004C0FE010E9429112296CA3CD107C9F779
:04227000F894FFCF10
:10227400004E6F206461746100417474656D707404
:1022840020746F207772697465206F757473696444
:1022940065206F6620454550524F4D206D656D6F2A
:1022A4007279004578636565646564206D61786959
:1022B4006D756D206E756D626572206F6620777224
:1022C400697465730043616E6E6F74206368616E38
:1022D4006765206365696C696E672C2062656C6F45
:1022E40077206973737565642061646472657373C0
:1022F400657300010000000100000060055705003F
:10230400028000EF02000000000000DE0C830D7468
:082314000CA50C850CCE0C0099
:00000001FF
