:100000000C9465000C94D00B0C94FD0B0C948D009B
:100010000C948D000C948D000C948D000C948D002C
:100020000C948D000C948D000C948D000C948D001C
:100030000C948D000C94A3090C948D000C948D00ED
:100040000C942A0C0C948D000C94210E0C946F0EC1
:100050000C948D000C948D000C948D000C948D00EC
:100060000C948D000C948D000000000024002700EB
:100070002A0000000000250028002B0000000000DE
:1000800023002600290004040404040404040202DA
:100090000202020203030303030301020408102007
:1000A0004080010204081020010204081020000012
:1000B0000007000201000003040600000000000029
:1000C0000000F7011209DB0FF00111241FBECFEF72
:1000D000D8E0DEBFCDBF11E0A0E0B1E0EEEEF7E288
:1000E00002C005900D92A83AB107D9F712E0A8EA2C
:1000F000B1E001C01D92A23FB107E1F710E0C8ECEA
:10010000D0E004C02297FE010E94E613C23CD10752
:10011000C9F70E9431100C94EA130C940000FB0103
:10012000DC0102C001900D9241505040D8F7089573
:10013000FB01DC018D91019080190110D9F3990B1D
:100140000895FB01DC0101900D920020E1F7089574
:10015000DF92EF92FF920F931F937B018C01FB01C3
:100160000995D82EC8010196F7010995982F8D2D74
:100170001F910F91FF90EF90DF900895DF92EF9223
:10018000FF920F931F93D72E7A018C01FA010995E4
:10019000C80101966D2DF70109951F910F91FF90F0
:1001A000EF90DF9008952091C6013091C701223071
:1001B000310591F4FC01EE0FFF1FE80FF91FEE0F60
:1001C000FF1FDF01AC5EBD4F2D913C911197EA5EA0
:1001D000FD4F808191811EC02330310539F5FC012E
:1001E000EE0FFF1FE80FF91FEE0FFF1FDF01AC5EE0
:1001F000BD4F2D913C911197EA5EFD4F8081918119
:1002000028173907A1F42D913C91119714968D91DF
:100210009C9115972817390751F48D919C9140E0D6
:10022000892B09F441E081E0482702C0089540E0AD
:10023000842F08956B3821E0720720E0820720E0C8
:10024000920758F0603E21E0720720E0820720E02C
:100250009207F0F426E030E05DC06D3521E07207D2
:1002600020E0820720E0920758F0643821E072070E
:1002700020E0820720E0920758F425E030E04AC0F1
:100280006F3221E0720720E0820720E0920758F0E9
:10029000663521E0720720E0820720E0920758F4DB
:1002A00024E030E037C0613021E0720720E08207AF
:1002B00020E0920758F0683221E0720720E08207C0
:1002C00020E0920740F423E030E024C0633D710554
:1002D0008105910540F06A3F71058105910540F463
:1002E00022E030E017C0653A71058105910580F084
:1002F0006C3C71058105910518F421E030E00AC0DD
:10030000615D77408040904018F020E030E002C00E
:1003100027E030E0C90108959C018091C8019091C7
:10032000C901009711F52115310579F4615070402C
:1003300081E090E002C0880F991F6A95E2F7209152
:100340002602282B2093260208952130310581F5BD
:100350006150704002C0220F331F6A95E2F7922F5E
:10036000909580912602892310C08130910501F576
:100370002130310569F46150704002C0220F331FF3
:100380006A95E2F780912602822B809326020895D7
:10039000232B71F46150704002C0880F991F6A9539
:1003A000E2F7982F90958091260289238093260268
:1003B00008958130910551F46F5F7F4F81F489EA90
:1003C00091E060E071E00E9467120895892B39F492
:1003D0006F5F7F4F21F489EA91E00E94BC1208957B
:1003E00080E090E06FEF7FEF0E94D901089581E0F7
:1003F00090E06FEF7FEF0E94D9010895809126026F
:1004000080FF03C08EE061E002C08EE060E00E94E9
:10041000790D8091260281FF03C08FE061E002C068
:100420008FE060E00E94790D8091260282FF03C078
:1004300080E161E002C080E160E00E94790D80917E
:10044000260283FF03C081E161E002C081E160E038
:100450000E94790D8091260284FF03C082E161E051
:1004600002C082E160E00E94790D8091260285FF42
:1004700003C083E161E002C083E160E00E94790D86
:100480000895CF92DF92EF92FF920F931F93DF9325
:10049000CF93CDB7DEB77C01CDB6DEB68091A80193
:1004A00090E02DB73EB7281B390B0FB6F8943EBF2E
:1004B0000FBE2DBF0DB71EB70F5F1F4F20E030E0FE
:1004C00006C0F801E20FF31F10822F5F3F4F28177D
:1004D0003907BCF389EA91E060E071E00E94811283
:1004E0008BEC92E00E94310F181619069CF4409193
:1004F000A8018BEC92E0B80150E00E94A21189EAB9
:1005000091E0B8010E948112C70169EA71E00E947E
:10051000B11205C0C70161E071E00E946712C70116
:100520000FB6F894DEBE0FBECDBECF91DF911F9106
:100530000F91FF90EF90DF90CF900895CF92DF92D0
:10054000EF92FF920F931F93DF93CF93CDB7DEB758
:1005500027970FB6F894DEBF0FBECDBF8E010F5F99
:100560001F4FC8010E944102C80161E071E00E9472
:10057000DB11882309F063C2C80160E070E00E94CB
:10058000C611C80160E070E00E94C611FC018081C4
:10059000813069F46091B2017091B3018EE292E012
:1005A0000E948D09682F8BEC92E00E949B0F7E01C8
:1005B0000894E11CF11CC70160E070E00E94C611C4
:1005C000FC0180818230C1F56091B4017091B50168
:1005D0008EE292E00E948D09019721F48BEC92E06B
:1005E00060E028C00091B2011091B301C70161E041
:1005F00070E00E94C611FC014081552747FD5095CF
:100600008EE292E0B8010E9475096091B401709188
:10061000B5018EE292E041E050E00E9475096091E0
:10062000B2017091B3018EE292E00E948D09682FB1
:100630008BEC92E00E949B0FCE01019660E070E08F
:100640000E94C611FC018081833029F48BEC92E07A
:100650006CE00E949B0FCE01019660E070E00E946A
:10066000C611FC018081853031F48BEC92E0609101
:1006700027020E949B0F8E010F5F1F4FC80160E091
:1006800070E00E94C611FC018081863079F4C801B7
:1006900061E070E00E94C611FC0160816093260257
:1006A0008BEC92E00E949B0F0E94FE01CE0101960E
:1006B00060E070E00E94C611FC018081873031F457
:1006C0008BEC92E0609126020E949B0F8E010F5FDF
:1006D0001F4FC80160E070E00E94C611FC018081DC
:1006E000883009F096C0C80161E070E00E94C61130
:1006F000FC01808180FF03C084E061E002C084E0EF
:1007000060E00E94790DCE01019661E070E00E94E8
:10071000C611FC01808181FF03C085E061E002C059
:1007200085E060E00E94790DCE01019661E070E005
:100730000E94C611FC01808182FF03C086E061E057
:1007400002C086E060E00E94790DCE01019661E072
:1007500070E00E94C611FC01808183FF03C087E026
:1007600061E002C087E060E00E94790DCE01019651
:1007700061E070E00E94C611FC01808184FF03C02B
:1007800088E061E002C088E060E00E94790DCE015F
:10079000019661E070E00E94C611FC01808185FF36
:1007A00003C089E061E002C089E060E00E94790D49
:1007B000CE01019661E070E00E94C611FC018081CB
:1007C00086FF03C08AE061E002C08AE060E00E9428
:1007D000790DCE01019661E070E00E94C611FC0126
:1007E000808187FF03C08BE061E002C08BE060E0A6
:1007F0000E94790DCE01019661E070E00E94C61161
:10080000FC016081772767FD70958BEC92E00E9478
:100810009B0F6E010894C11CD11CC60160E070E002
:100820000E94C611FC0180818930C9F552EDE52E88
:1008300051E0F52E00E010E0C60161E070E00E949A
:10084000C611FC018081992787FD9095002E02C07A
:10085000959587950A94E2F780FF06C081E090E0C5
:10086000F7019183808303C0F701118210820F5F2B
:100870001F4F82E090E0E80EF91E09301105E1F605
:10088000CE01019661E070E00E94C611FC0160811A
:10089000772767FD70958BEC92E00E949B0F8E018D
:1008A0000F5F1F4FC80160E070E00E94C611FC019D
:1008B00080818A3009F03FC0C80161E070E00E9489
:1008C000C611FC0180818230A1F482E090E0909317
:1008D000C7018093C6016091B0017091B1018EE2B1
:1008E00092E042E050E00E9475098BEC92E062E0F9
:1008F00020C0C80161E070E00E94C611FC01808147
:100900008330A1F483E090E09093C7018093C60107
:100910006091B0017091B1018EE292E043E050E04D
:100920000E9475098BEC92E063E003C08BEC92E0CF
:1009300060E00E949B0FCE01019660E070E00E9493
:10094000C611FC0180818B3031F48BEC92E0609118
:10095000C6010E949B0F8E010F5F1F4FC80160E010
:1009600070E00E94C611FC0180818C30D1F5C80175
:1009700061E070E00E94C611FC018081882379F457
:100980001092C9011092C8016091B6017091B7012F
:100990008EE292E040E050E00E9475091DC0C8015F
:1009A00061E070E00E94C611FC0180818130A1F4F9
:1009B00081E090E09093C9018093C8016091B601F5
:1009C0007091B7018EE292E041E050E00E9475091B
:1009D0008BEC92E061E003C08BEC92E060E00E945F
:1009E0009B0FCE01019660E070E00E94C611FC01F1
:1009F00080818D3031F48BEC92E06091C8010E94CF
:100A00009B0F8E010F5F1F4FC80160E070E00E94D6
:100A1000C611FC0180818E3091F4C80161E070E064
:100A20000E94C611FC016081772767FD7095709365
:100A30002802609327028BEC92E00E949B0FCE016C
:100A400001960E94BC1227960FB6F894DEBF0FBE27
:100A5000CDBFCF91DF911F910F91FF90EF90DF906D
:100A6000CF9008958EE061E00E94790D60ED77E00F
:100A700080E090E00E94A60C8FE061E00E94790D7A
:100A800060ED77E080E090E00E94A60C80E161E0FC
:100A90000E94790D60ED77E080E090E00E94A60C66
:100AA00081E161E00E94790D60ED77E080E090E007
:100AB0000E94A60C82E161E00E94790D60ED77E072
:100AC00080E090E00E94A60C83E161E00E94790D35
:100AD00060ED77E080E090E00E94A60C84E061E0A9
:100AE0000E94790D60ED77E080E090E00E94A60C16
:100AF00085E061E00E94790D60ED77E080E090E0B4
:100B00000E94A60C86E061E00E94790D60ED77E01E
:100B100080E090E00E94A60C87E061E00E94790DE1
:100B200060ED77E080E090E00E94A60C88E061E054
:100B30000E94790D60ED77E080E090E00E94A60CC5
:100B400089E061E00E94790D60ED77E080E090E05F
:100B50000E94A60C8AE061E00E94790D60ED77E0CA
:100B600080E090E00E94A60C8BE061E00E94790D8D
:100B700060ED77E080E090E00E94A60C8EE060E0FF
:100B80000E94790D60ED77E080E090E00E94A60C75
:100B90008FE060E00E94790D60ED77E080E090E00A
:100BA0000E94A60C80E160E00E94790D60ED77E084
:100BB00080E090E00E94A60C81E160E00E94790D47
:100BC00060ED77E080E090E00E94A60C82E160E0BA
:100BD0000E94790D60ED77E080E090E00E94A60C25
:100BE00083E160E00E94790D60ED77E080E090E0C5
:100BF0000E94A60C84E060E00E94790D60ED77E031
:100C000080E090E00E94A60C85E060E00E94790DF3
:100C100060ED77E080E090E00E94A60C86E060E066
:100C20000E94790D60ED77E080E090E00E94A60CD4
:100C300087E060E00E94790D60ED77E080E090E071
:100C40000E94A60C88E060E00E94790D60ED77E0DC
:100C500080E090E00E94A60C89E060E00E94790D9F
:100C600060ED77E080E090E00E94A60C8AE060E012
:100C70000E94790D60ED77E080E090E00E94A60C84
:100C80008BE060E00E94790D08950F931F93CF933E
:100C9000DF9390E080912902882309F491E09093FA
:100CA0002902C2EDD1E014E088819981019729F4ED
:100CB000812F609129020E94790D22961F5F1D30BD
:100CC00099F70AEB11E0C0E0D0E0F8018081918152
:100CD000181619060CF051C0019791838083C23019
:100CE000D10531F1C330D1053CF4209779F0C13002
:100CF000D10509F042C013C0C430D10559F1C43048
:100D0000D105FCF0C530D105C1F52DC08EE00E94A3
:100D1000CD0D60E0892B09F461E08EE02CC08FE0FE
:100D20000E94CD0D60E0892B09F461E08FE023C0C3
:100D300080E10E94CD0D60E0892B09F461E080E143
:100D40001AC081E10E94CD0D60E0892B09F461E0B9
:100D500081E111C082E10E94CD0D60E0892B09F490
:100D600061E082E108C083E10E94CD0D60E0892B43
:100D700009F461E083E10E94790D21960E5F1F4F17
:100D8000C630D10509F0A1CFDF91CF911F910F910E
:100D90000895EF92FF920F931F93E0908301F090DC
:100DA00084010091850110918601E114F10401058F
:100DB000110551F10E94720C28EC30E040E050E047
:100DC000E20EF31E041F151FE616F70608071907A3
:100DD000A0F460918B0170918C0180E042E050E0C2
:100DE0000E949A0B10928301109284011092850147
:100DF000109286011092B80107C00E94720C683CE4
:100E000071058105910528F3E0908701F090880134
:100E10000091890110918A01E114F1040105110585
:100E200049F10E94720C28EC30E040E050E0E20E04
:100E3000F31E041F151FE616F7060807190738F0FA
:100E40000E94720C683C71058105910598F46091CF
:100E50008D0170918E0181E042E050E00E949A0B7A
:100E600010928701109288011092890110928A01D4
:100E70001092B9011F910F91FF90EF9008950E9479
:100E80009E020E94C9060895CF92DF92EF92FF92D0
:100E90000F931F93CF93DF936C010E94800CF60198
:100EA000EE0FFF1FEE0FFF1FDF01A450BE4F6D932B
:100EB0007D938D939C9313976D917D918D919C91D2
:100EC0001397EC51FE4FE080F180028113812D9148
:100ED0003D914D915C9120833183428353836E1900
:100EE0007F09800B910B0E941A01EC01F601EE0FB5
:100EF000FF1FDF01A05EBD4F8D919C911197EC0DFE
:100F0000FD1DE80FF91FEE0FFF1FEC5EFD4FD183B3
:100F1000C0830D90BC91A02D8091C6019091C70116
:100F20000197A817B90719F4A0E0B0E001C0119625
:100F3000C601880F991FFC01E05EFD4FB183A083BD
:100F4000209719F0C730D105A1F4FC01EC0DFD1D6F
:100F5000EE0FFF1FDF01AC5EBD4F11961C921E927B
:100F6000EA5EFD4F1182108215961C921E92149714
:100F700052C0C6010E94D300813009F04CC00E94CB
:100F8000720CF601EE0FFF1FEE0FFF1FED57FE4F25
:100F900060837183828393838C2D0E94BD0B80912B
:100FA000270290912802009739F58BEC92E0BE0160
:100FB0004AE050E00E944A118091C8019091C90115
:100FC000009749F4CC0FDD1FC854DE4FC6010196CF
:100FD000880F991F0EC00197B9F4C114D10419F0FC
:100FE00082E090E002C084E090E0CC0FDD1FC854A6
:100FF000DE4F9983888308C0019731F4C601BE0192
:101000000E948C010E94FE0188EB91E0C80ED91E5F
:1010100081E0F6018083DF91CF911F910F91FF90C6
:10102000EF90DF90CF9008958091B901882321F44B
:1010300081E090E00E94440708958091B8018823E0
:1010400021F480E090E00E94440708958BEC92E048
:1010500040E056E960E070E00E94AA0E8BEC92E05E
:1010600044E650E060E070E00E947011F8948EE277
:1010700092E062E070E00E9455099093B101809384
:10108000B0018EE292E062E070E00E945509909318
:10109000B3018093B2018EE292E062E070E00E94C0
:1010A00055099093B5018093B4018EE292E062E01D
:1010B00070E00E9455099093B7018093B60182E0D9
:1010C00060E00E943A0D82E061E00E94790D83E0C9
:1010D00060E00E943A0D83E061E00E94790D8EE0AD
:1010E00061E00E943A0D8FE061E00E943A0D80E1DC
:1010F00061E00E943A0D81E161E00E943A0D82E1D7
:1011000061E00E943A0D83E161E00E943A0D84E0C3
:1011100061E00E943A0D85E061E00E943A0D86E0B0
:1011200061E00E943A0D87E061E00E943A0D88E09C
:1011300061E00E943A0D89E061E00E943A0D8AE088
:1011400061E00E943A0D8BE061E00E943A0D0E943E
:10115000C9060E94320580E392E040EE53E964E064
:1011600070E00E943E0A80E392E065E476E02FEFB3
:101170003FEF4FEF5FEF0E94460A6091B001709120
:10118000B1018EE292E00E948D099093C701809395
:10119000C6010297029780F082E090E09093C70129
:1011A0008093C6016091B0017091B1018EE292E02E
:1011B00042E050E00E9475096091B6017091B7015C
:1011C0008EE292E00E948D099093C9018093C8013C
:1011D000029770F01092C9011092C8016091B0019D
:1011E0007091B1018EE292E040E050E00E947509FA
:1011F00082E08093A801789408959C01F999FECF2C
:1012000032BD21BDF89A80B508959C01F999FECFB1
:101210001FBA32BD21BD60BD0FB6F894FA9AF99A93
:101220000FBE089584E690E090932F0280932E02E3
:10123000089580918F01909190018617970714F07F
:1012400081E008958BEC92E069E071E00E945D110D
:1012500080E00895FC0180912C0290912D0201966E
:1012600090932D0280932C020190F081E02D309715
:1012700019F0E817F90744F48BEC92E063E371E0AE
:101280000E945D1180E0089580918F0190919001FE
:101290008617970714F081E008958BEC92E069E0DF
:1012A00071E00E945D1180E00895CF93DF93C091BB
:1012B0002A02D0912B026C0F7D1F70932B0260933A
:1012C0002A0280918F0190919001861797074CF424
:1012D0008BEC92E069E071E00E945D11D095C195C0
:1012E000DF4FCE01DF91CF9108950F931F93CF93DE
:1012F000DF93EB018A016E5F7F4F0E942A098823EA
:1013000039F0CE01B80145E059E00E94BE0081E00D
:10131000DF91CF911F910F910895CF93DF93EB0150
:101320006E5F7F4F0E941909882319F420E030E096
:1013300006C0CE016DEF78E00E94A8009C01C901B3
:10134000DF91CF9108951F920F920FB60F92112443
:101350002F933F934F935F936F937F938F939F93BD
:10136000AF93BF93EF93FF93E0913402F091350276
:101370000995FF91EF91BF91AF919F918F917F91CF
:101380006F915F914F913F912F910F900FBE0F90F2
:101390001F901895FC01A3E0440F551F661F771F8F
:1013A000AA95D1F7403080E0580781E0680780E0D7
:1013B000780714F481E010C033E075956795579570
:1013C00047953A95D1F7403080E0580781E06807AB
:1013D00080E078071CF482E0828339C023E07595B1
:1013E0006795579547952A95D1F7403080E0580783
:1013F00081E0680780E0780714F483E0EDCF92E0A5
:1014000075956795579547959A95D1F7403080E047
:10141000580781E0680780E0780714F484E0DCCFA7
:1014200082E075956795579547958A95D1F7403035
:1014300080E0580781E0680780E0780714F485E0D1
:10144000CBCF85E082834FEF5FEF60E070E08FB736
:101450008383F894518340835093870040938600A0
:1014600083818FBF80918100887F809381008091EC
:1014700081009281892B80938100089510928000D1
:1014800020E1209381000E94CA0908950F931F93C1
:10149000CF93DF93EC018B01121613061406150689
:1014A00024F4BA01A9010E94CA091D830C8381E0BA
:1014B00080936F00809181009A81892B80938100B5
:1014C000DF91CF911F910F9108950F931F93CF93A9
:1014D000DF93BC018230910510F462E070E0E0918E
:1014E000F002F091F10240E050E0A0E0B0E024C052
:1014F0008081918186179707D0F08617970771F43E
:1015000082819381109729F013969C938E93129762
:101510002CC09093F1028093F00227C04115510531
:1015200019F08417950718F48D01AC01EF01DF0164
:10153000828193819C01F9013097D1F641155105C3
:10154000F9F0CA01861B970B8430910580F48A81DB
:101550009B810115110521F0F8019383828304C05A
:101560009093F1028093F002FE01329645C0FE0195
:10157000E80FF91F619371930297998388833CC0A8
:101580008091EE029091EF02892B41F480919301BA
:10159000909194019093EF028093EE024091950117
:1015A000509196014115510541F44DB75EB78091B8
:1015B000910190919201481B590B2091EE023091BC
:1015C000EF0224173507B0F4CA01821B930B86176C
:1015D000970780F0AB014E5F5F4F8417950750F07F
:1015E000420F531F5093EF024093EE02F9016193B3
:1015F000719302C0E0E0F0E0CF01DF91CF911F9145
:101600000F910895CF93DF939C01009709F48FC049
:10161000EC0122971B821A826091F0027091F10214
:101620006115710581F488819981820F931F209142
:10163000EE023091EF022817390739F5D093EF0207
:10164000C093EE0274C0DB0140E050E0AC17BD0770
:1016500008F1BB83AA83FE0121913191E20FF31FB0
:10166000AE17BF0779F48D919C911197280F391F00
:101670002E5F3F4F3983288312968D919C9113974B
:101680009B838A834115510571F4D093F102C09375
:10169000F0024DC012968D919C911397AD01009769
:1016A00011F0DC01D3CFDA011396DC93CE931297BD
:1016B000FA0121913191E20FF31FCE17DF0769F490
:1016C00088819981280F391F2E5F3F4FFA0131839E
:1016D00020838A819B8193838283E0E0F0E0DB01B9
:1016E00012968D919C911397009719F0BC01FD0102
:1016F000F6CFAB014E5F5F4FDB018D919C91840F64
:10170000951F2091EE023091EF022817390779F4E6
:10171000309729F41092F1021092F00202C0138265
:101720001282425050405093EF024093EE02DF91FC
:10173000CF910895823000F5E82FF0E0EE0FFF1F03
:10174000EA5CFD4F71836083882319F08130A1F436
:1017500008C0809169008C7F842B80936900E89A8F
:10176000089580916900440F551F440F551F837FD2
:10177000842B80936900E99A0895823080F488234D
:1017800019F0813021F402C0E89801C0E998E82FEF
:10179000F0E0EE0FFF1FEA5CFD4F1182108208950A
:1017A0001F920F920FB60F9211242F933F934F93D6
:1017B0005F936F937F938F939F93AF93BF93EF93B9
:1017C000FF938091360290913702892B29F0E091A6
:1017D0003602F09137020995FF91EF91BF91AF91D9
:1017E0009F918F917F916F915F914F913F912F9139
:1017F0000F900FBE0F901F9018951F920F920FB66B
:101800000F9211242F933F934F935F936F937F9386
:101810008F939F93AF93BF93EF93FF938091380281
:1018200090913902892B29F0E0913802F091390228
:101830000995FF91EF91BF91AF919F918F917F910A
:101840006F915F914F913F912F910F900FBE0F902D
:101850001F9018951F920F920FB60F9211242F937D
:101860003F938F939F93AF93BF9380913E0290914C
:101870003F02A0914002B091410230914202019694
:10188000A11DB11D232F2D5F2D3720F02D5701965F
:10189000A11DB11D2093420280933E0290933F020E
:1018A000A0934002B093410280913A0290913B0292
:1018B000A0913C02B0913D020196A11DB11D809303
:1018C0003A0290933B02A0933C02B0933D02BF9139
:1018D000AF919F918F913F912F910F900FBE0F90DD
:1018E0001F9018958FB7F89420913E0230913F02D7
:1018F00040914002509141028FBFB901CA01089541
:101900009FB7F89420913A0230913B0240913C02FB
:1019100050913D0286B5A89B06C08F3F21F02F5FF6
:101920003F4F4F4F5F4F9FBF542F432F322F2227E0
:10193000280F311D411D511D82E0220F331F441F0E
:10194000551F8A95D1F7B901CA0108959B01AC01D1
:101950007FB7F89480913A0290913B02A0913C02AB
:10196000B0913D0266B5A89B05C06F3F19F0019686
:10197000A11DB11D7FBFBA2FA92F982F8827860FD1
:10198000911DA11DB11D62E0880F991FAA1FBB1FE9
:101990006A95D1F7BC012DC0FFB7F89480913A0247
:1019A00090913B02A0913C02B0913D02E6B5A89B0C
:1019B00005C0EF3F19F00196A11DB11DFFBFBA2F61
:1019C000A92F982F88278E0F911DA11DB11DE2E030
:1019D000880F991FAA1FBB1FEA95D1F7861B970B8B
:1019E000885E9340C8F221503040404050406851DA
:1019F0007C4F211531054105510571F60895789404
:101A000084B5826084BD84B5816084BD85B5826003
:101A100085BD85B5816085BDEEE6F0E080818160A1
:101A20008083E1E8F0E010828081826080838081A1
:101A300081608083E0E8F0E0808181608083E1EB79
:101A4000F0E0808184608083E0EBF0E08081816061
:101A50008083EAE7F0E08081846080838081826017
:101A60008083808181608083808180688083109200
:101A7000C1000895CF93DF93482F50E0CA018656E6
:101A80009F4FFC0134914A575F4FFA01849188239C
:101A900069F190E0880F991FFC01E859FF4FA5916B
:101AA000B491FC01EE58FF4FC591D491662351F4D7
:101AB0002FB7F8948C91932F909589238C938881DC
:101AC00089230BC0623061F42FB7F8948C91932F67
:101AD000909589238C938881832B88832FBF06C0A0
:101AE0009FB7F8948C91832B8C939FBFDF91CF91FC
:101AF0000895482F50E0CA0182559F4FFC01249160
:101B0000CA0186569F4FFC0194914A575F4FFA01D4
:101B10003491332309F440C0222351F1233071F072
:101B2000243028F42130A1F0223011F514C02630E1
:101B3000B1F02730C1F02430D9F404C08091800086
:101B40008F7703C0809180008F7D8093800010C0CC
:101B500084B58F7702C084B58F7D84BD09C0809124
:101B6000B0008F7703C08091B0008F7D8093B0006C
:101B7000E32FF0E0EE0FFF1FEE58FF4FA591B49159
:101B80002FB7F894662321F48C919095892302C095
:101B90008C91892B8C932FBF0895682F70E0CB0117
:101BA00082559F4FFC012491CB0186569F4FFC012B
:101BB00044916A577F4FFB019491992319F420E0D7
:101BC00030E03CC0222351F1233071F0243028F45E
:101BD0002130A1F0223011F514C02630B1F02730A9
:101BE000C1F02430D9F404C0809180008F7703C005
:101BF000809180008F7D8093800010C084B58F77A6
:101C000002C084B58F7D84BD09C08091B0008F77FC
:101C100003C08091B0008F7D8093B000892F90E049
:101C2000880F991F84589F4FFC01A591B4918C9106
:101C300020E030E0842311F021E030E0C901089574
:101C400008951F920F920FB60F9211242F933F9376
:101C50004F938F939F93EF93FF938091C00082FDEA
:101C60001DC04091C60020918302309184022F5FF5
:101C70003F4F2F7330708091850290918602281714
:101C8000390771F0E0918302F0918402ED5BFD4F22
:101C90004083309384022093830202C08091C60067
:101CA000FF91EF919F918F914F913F912F910F90C5
:101CB0000FBE0F901F901895E091D702F091D802B7
:101CC000E05CFF4F8191919120813181821B930BC8
:101CD0008F739070892B11F00E94200E08951F922F
:101CE0000F920FB60F9211242F933F938F939F93D0
:101CF000EF93FF932091C7023091C8028091C902EF
:101D00009091CA022817390731F48091C1008F7D64
:101D10008093C10014C0E091C902F091CA02E95752
:101D2000FD4F20818091C9029091CA0201968F7364
:101D300090709093CA028093C9022093C600FF91CD
:101D4000EF919F918F913F912F910F900FBE0F9028
:101D50001F901895AF92BF92DF92EF92FF920F9370
:101D60001F93CF93DF93EC017A018B01DD24403088
:101D700081EE580780E0680780E0780711F0DD24E5
:101D8000D39491E0A92EB12CEC89FD89DD2069F076
:101D9000C50108A002C0880F991F0A94E2F780834A
:101DA00060E079E08DE390E005C0108260E874E8BF
:101DB0008EE190E0A80197010E94C21321503040AB
:101DC00040405040569547953795279580E1203003
:101DD000380720F0DD2011F0DD24D6CFE889F9891D
:101DE0003083EA89FB89208319A2EE89FF8940812B
:101DF00021E030E0C9010C8C02C0880F991F0A94C1
:101E0000E2F7482B4083EE89FF894081C9010D8CA0
:101E100002C0880F991F0A94E2F7482B4083EE898D
:101E2000FF894081C9010E8C02C0880F991F0A9456
:101E3000E2F7482B4083EE89FF8980810F8C02C036
:101E4000220F331F0A94E2F7209528232083DF9185
:101E5000CF911F910F91FF90EF90DF90BF90AF90C7
:101E60000895DC011C96ED91FC911D97E05CFF4FFD
:101E70002191319180819181281B390B2F73307012
:101E8000C9010895DC011C96ED91FC911D97E05C61
:101E9000FF4F20813181E054F040DF01AE5BBF4F46
:101EA0008D919C9111972817390719F42FEF3FEF67
:101EB00007C08D919C91E80FF91F8081282F30E099
:101EC000C9010895DC011C96ED91FC911D97E05C21
:101ED000FF4F20813181E054F040DF01AE5BBF4F06
:101EE0008D919C9111972817390719F42FEF3FEF27
:101EF00010C08D919C911197E80FF91F20818D9151
:101F00009C91119701968F73907011969C938E936C
:101F100030E0C9010895DC0191968C919197882356
:101F200039F05496ED91FC915597808186FFF9CF59
:101F300091961C920895CF93DF93EC01EE85FF8577
:101F4000E05CFF4F20813181E054F0402F5F3F4F34
:101F50002F733070DF01AE5BBF4F8D919C91119755
:101F600028173907D1F3E05CFF4F80819181E0545D
:101F7000F040E80FF91F6083EE85FF85E05CFF4FBE
:101F800031832083EE89FF89208181E090E00F8CEE
:101F900002C0880F991F0A94E2F7282B208381E062
:101FA00089A3EC89FD8980818064808381E090E051
:101FB000DF91CF9108951092CE021092CD0288EE5B
:101FC00093E0A0E0B0E08093CF029093D002A09382
:101FD000D102B093D2028BE991E09093CC0280932E
:101FE000CB0283E492E09093D8028093D70287E8F3
:101FF00092E09093DA028093D90285EC90E090937E
:10200000DC028093DB0284EC90E09093DE0280930C
:10201000DD0280EC90E09093E0028093DF0281EC9F
:1020200090E09093E2028093E10282EC90E0909342
:10203000E4028093E30286EC90E09093E6028093C2
:10204000E50284E08093E70283E08093E80287E082
:102050008093E90285E08093EA0281E08093EB02BD
:102060000895CF93DF930E94FF0C0E942608CCE5D1
:10207000DEE00E943F072097E1F30E945C0EF9CF5B
:10208000CF92DF92EF92FF920F931F93CF93DF9344
:102090007C016B018A01C0E0D0E00FC0D6016D91D8
:1020A0006D01D701ED91FC910190F081E02DC70108
:1020B0000995C80FD91F015010400115110571F77E
:1020C000CE01DF91CF911F910F91FF90EF90DF90A4
:1020D000CF900895EF92FF920F931F938C01DC0134
:1020E000ED91FC910190F081E02D6DE009957C016E
:1020F000D801ED91FC910190F081E02DC8016AE0DA
:1021000009959C012E0D3F1DC9011F910F91FF9054
:10211000EF900895CF93DF93EC016115710519F4E9
:1021200020E030E00FC0DB010D900020E9F71197AF
:10213000A61BB70BE881F9810280F381E02DAD0188
:1021400009959C01C901DF91CF9108954F925F924B
:102150007F928F929F92AF92BF92CF92DF92EF9237
:10216000FF920F931F93DF93CF93CDB7DEB7A19765
:102170000FB6F894DEBF0FBECDBF2C01742ECB017D
:10218000223008F42AE019A231E2C32ED12CCC0E61
:10219000DD1E822E9924AA24BB24672D752FA5014C
:1021A00094010E94C21379018A01C801B701A501F7
:1021B00094010E94A313472D461B0894C108D1081F
:1021C0004A3014F4405D01C0495CF6014083E114DB
:1021D000F1040105110521F07E2C5F2DC801DDCF32
:1021E000C201B6010E948A10A1960FB6F894DEBF14
:1021F0000FBECDBFCF91DF911F910F91FF90EF9058
:10220000DF90CF90BF90AF909F908F907F905F9026
:102210004F900895CF92DF92EF92FF920F931F930A
:10222000CF93DF93EC016A017B012115310541F465
:10223000E881F9810190F081E02D642F09951FC09C
:102240002A303105D1F477FF17C0E881F981019078
:10225000F081E02D6DE209958C0144275527BA01E4
:102260004C195D096E097F09CE012AE00E94A61073
:102270009801280F391F04C02AE00E94A6109C0173
:10228000C901DF91CF911F910F91FF90EF90DF90E7
:10229000CF900895EF92FF920F931F937B019A01C5
:1022A0000027F7FC0095102FB801A7010E940A1122
:1022B0001F910F91FF90EF900895EF92FF920F936F
:1022C0001F937C010E948A108C01C7010E946A1032
:1022D000080F191FC8011F910F91FF90EF900895EB
:1022E000FC0144835583668377830895CF93DF93FE
:1022F000EC010E94720C688779878A879B87E88146
:10230000F9810680F781E02DCE0109959C0197FFA8
:1023100015C00E94720C288539854A855B85621B31
:10232000730B840B950B2C813D814E815F8162176D
:1023300073078407950718F32FEF3FEFC901DF916B
:10234000CF910895CF92DF92EF92FF920F931F9358
:10235000CF93DF936C018B017A01C0E0D0E009C01C
:10236000C6010E94761197FD07C0F80181938F0185
:102370002196CE15DF05A0F3CE01DF91CF911F91FD
:102380000F91FF90EF90DF90CF900895FC019B019B
:10239000848195816817790728F4608171816115BE
:1023A000710529F41092ED026DEE72E002C0620F29
:1023B000731FCB010895DC01FB0114968D919C9154
:1023C0001597892B31F461157105A9F090E0808192
:1023D00008C00D90BC91A02D6115710529F490E005
:1023E0008C91882349F407C0CD010E9498009C017C
:1023F00090E0232B09F491E0892F08950F931F9308
:10240000CF93DF93EC018B016F5F7F4F88819981C0
:102410000E94C212009711F480E005C0998388835E
:102420001B830A8381E0DF91CF911F910F91089563
:10243000CF93DF93EC0188819981892B29F08A81E0
:102440009B818617970760F4CE010E94FE118823B6
:1024500041F08C819D81892B19F4E881F9811082EA
:1024600081E0DF91CF910895CF93DF93EC018881D4
:102470009981009711F00E94020B198218821D8227
:102480001C821B821A82DF91CF910895EF92FF92F6
:102490000F931F93CF93DF93EC017B018A01BA0165
:1024A0000E941812882321F4CE010E94341207C022
:1024B0001D830C8388819981B7010E94A100CE0100
:1024C000DF91CF911F910F91FF90EF900895CF93DF
:1024D000DF93EC01198218821B821A821D821C82F2
:1024E0001E826115710551F0DB010D900020E9F7A6
:1024F0001197A61BB70BAD010E944612DF91CF9139
:1025000008950F931F93182F092F6115710559F026
:10251000DB010D900020E9F71197A61BB70BAD0169
:102520000E94461202C00E943412812F902F1F91E8
:102530000F910895CF93DF93EC01FB018617970766
:1025400061F0608171816115710529F044815581C7
:102550000E94461202C00E943412CE01DF91CF9138
:102560000895FC0111821082138212821582148256
:1025700016820E949A120895FC01808191810E9426
:10258000020B08956F927F928F929F92AF92BF92AB
:10259000CF92DF92EF92FF920F931F93CF93DF932F
:1025A0008C01009729F4CB010E94650A8C01BBC005
:1025B0008EEFE82E8FEFF82EE00EF11E4801860E0A
:1025C000971E8E149F0408F4ACC0D7014D915C9106
:1025D000119746175707B8F04530510508F4A3C0C6
:1025E000CA0104978617970708F49DC042505040CF
:1025F000461B570BF401419351936D937C93CF018C
:102600000E94020B90C05B01A41AB50A3801640E47
:10261000751EA091F002B091F102E0E0F0E0CC2450
:10262000DD2447C0A615B705A9F5CD91DC9111971A
:10263000CE0102968A159B0568F1CE018A199B0985
:10264000029612962C91129713963C91059758F08A
:10265000F40122833383CA19DB09D183C083D701F4
:102660006D937C9309C04E5F5F4F4C0F5D1FF70168
:1026700051834083C901FC01C114D10431F0D6015A
:102680001396FC93EE9312974EC0F093F102E093F1
:10269000F00249C08D919C911197E817F90708F451
:1026A000FC016D0112968C91129713969C919C01DE
:1026B000D901109709F0B6CF8091EE029091EF0208
:1026C00086159705E9F4E617F707D0F420919501F0
:1026D000309196012115310541F42DB73EB7809117
:1026E000910190919201281B390B82169306C8F430
:1026F0009092EF028092EE02F7017183608313C023
:10270000CB010E94650AEC01009759F0D7014D9169
:102710005C91B8010E948F00C8010E94020B8E01DB
:1027200002C000E010E0C801DF91CF911F910F912E
:10273000FF90EF90DF90CF90BF90AF909F908F90E1
:102740007F906F900895629FD001739FF001829FE8
:10275000E00DF11D649FE00DF11D929FF00D839F30
:10276000F00D749FF00D659FF00D9927729FB00DCD
:10277000E11DF91F639FB00DE11DF91FBD01CF01E0
:1027800011240895A1E21A2EAA1BBB1BFD010DC046
:10279000AA1FBB1FEE1FFF1FA217B307E407F50711
:1027A00020F0A21BB30BE40BF50B661F771F881FED
:1027B000991F1A9469F760957095809590959B0183
:1027C000AC01BD01CF010895EE0FFF1F0590F491FC
:1027D000E02D099410E0C8ECD0E004C0FE010E9496
:0E27E000E6132296CA3CD107C9F7F894FFCF42
:1027EE00004E6F206461746100417474656D707485
:1027FE0020746F207772697465206F7574736964C5
:10280E0065206F6620454550524F4D206D656D6FAA
:10281E007279004578636565646564206D617869D9
:10282E006D756D206E756D626572206F66207772A4
:10283E00697465730043616E6E6F74206368616EB8
:10284E006765206365696C696E672C2062656C6FC5
:10285E007720697373756564206164647265737340
:10286E0065730001000000010000001D081408003F
:10287E00028000F2020000000000009B0F401031A9
:08288E000F620F420F8B0F00D7
:00000001FF
