:1000000005C100000C947D0C0C94AE0C0C94DF0C1C
:100010000C94100D0C94410D0C94720D0C94A30DC6
:100020000C94D40D20C100001EC100001CC10000B2
:100030001AC1000018C1000016C1000014C1000060
:1000400012C1000010C100000EC100000CC1000070
:100050000C94DD0908C1000006C100000C94050ED7
:1000600002C100000C9451100C949511FCC00000CA
:10007000FAC00000F8C00000F6C00000F4C00000A4
:10008000F2C00000F0C00000EEC00000ECC00000B4
:100090000C9491100C94D411E6C00000E4C0000050
:1000A000E2C00000E0C00000DEC00000DCC00000D4
:1000B000DAC00000D8C00000D6C00000D4C00000E4
:1000C000D2C00000D0C00000CEC000000C94D110FF
:1000D0000C941312C8C000000C9411110C9452120D
:1000E000C2C0000000002100240027002A002D00CB
:1000F0003000330001010000040107010A01000083
:100100002200250028002B002E00310034000201BF
:100110000000050108010B0100002000230026005B
:1001200029002C002F00320000010000030106010D
:10013000090105050505070508080808020202026D
:100140000A0A080804040404010101010101010173
:100150000303030303030303040707070C0C0C0C3E
:100160000C0C0C0C02020202060606060606060627
:100170000B0B0B0B0B0B0B0B0102102020080810B4
:100180002040102040800201020108040201010207
:1001900004081020408080402010080402018004E0
:1001A000020180402010080402010804020101023B
:1001B0000408102040800102040810204080000044
:1001C000090A02080B0C0D070603040100000000D9
:1001D000000000000000000000000000000000001F
:1001E0000000000000000000000011100F000000DF
:1001F00000000000000000000000000000000000FF
:10020000000000006E023109C113690211241FBEF3
:10021000CFEFD1E2DEBFCDBF00E00CBF12E0A0E027
:10022000B2E0E6E4F1E300E00BBF02C007900D92FC
:10023000A83AB107D9F71BBE15E0A8EAB2E001C0A1
:100240001D92AC3FB107E1F712E0CAE0D2E004C072
:100250002297FE010E949318C430D107C9F70E946B
:10026000F7140C949718CCCEFB01DC0102C001906E
:100270000D9241505040D8F70895FB01DC018D915B
:10028000019080190110D9F3990B0895FB01DC014D
:1002900001900D920020E1F708952091C60230915F
:1002A000C7022230310591F4FC01EE0FFF1FE80F69
:1002B000F91FEE0FFF1FDF01AC5EBC4F2D913C918B
:1002C0001197EA5EFC4F808191811EC02330310579
:1002D00039F5FC01EE0FFF1FE80FF91FEE0FFF1FAE
:1002E000DF01AC5EBC4F2D913C911197EA5EFC4F53
:1002F0008081918128173907A1F42D913C911197A4
:1003000014968D919C9115972817390751F48D916A
:100310009C9140E0892B09F441E081E0482702C02C
:10032000089540E0842F08956B3821E0720720E0A3
:10033000820720E0920758F0603E21E0720720E03B
:10034000820720E09207F0F426E030E05DC06D35D2
:1003500021E0720720E0820720E0920758F064381D
:1003600021E0720720E0820720E0920758F425E0A0
:1003700030E04AC06F3221E0720720E0820720E0BF
:10038000920758F0663521E0720720E0820720E0EE
:10039000920758F424E030E037C0613021E0720762
:1003A00020E0820720E0920758F0683221E07207CF
:1003B00020E0820720E0920740F423E030E024C0F0
:1003C000633D71058105910540F06A3F7105810526
:1003D000910540F422E030E017C0653A71058105CF
:1003E000910580F06C3C71058105910518F421E0C0
:1003F00030E00AC0615D77408040904018F020E016
:1004000030E002C027E030E0C90108959C018091EE
:10041000C8029091C902009711F52115310579F4B0
:100420006150704081E090E002C0880F991F6A958A
:10043000E2F720912603282B2093260308952130EC
:10044000310581F56150704002C0220F331F6A955B
:10045000E2F7922F909580912603892310C0813076
:10046000910501F52130310569F46150704002C0F9
:10047000220F331F6A95E2F780912603822B809327
:1004800026030895232B71F46150704002C0880F39
:10049000991F6A95E2F7982F9095809126038923FA
:1004A0008093260308958130910549F46F5F7F4F53
:1004B00079F489EA92E060E072E00C941C17892BD1
:1004C00039F46F5F7F4F21F489EA92E00C946A1748
:1004D000089580E090E06FEF7FEFE5CF81E090E05E
:1004E0006FEF7FEFE0CF8091260380FF03C086E3AC
:1004F00061E002C086E360E00E94EF0F8091260376
:1005000081FF03C087E361E002C087E360E00E94EF
:10051000EF0F8091260382FF03C088E361E002C0F1
:1005200088E360E00E94EF0F8091260383FF03C001
:1005300089E361E002C089E360E00E94EF0F8091EF
:10054000260384FF03C08AE361E002C08AE360E01F
:100550000E94EF0F8091260385FF03C08BE361E0CB
:1005600002C08BE360E00C94EF0FCF92DF92EF922A
:10057000FF920F931F93DF93CF93CDB7DEB77C012C
:10058000CDB6DEB68091A80290E02DB73EB7281B0D
:10059000390B0FB6F8943EBF0FBE2DBF0DB71EB777
:1005A0000F5F1F4F20E030E006C0F801E20FF31F9D
:1005B00010822F5F3F4F28173907BCF389EA92E07A
:1005C00060E072E00E9435178FE695E00E941713F5
:1005D000181619069CF44091A8028FE695E0B80120
:1005E00050E00E945C1689EA92E0B8010E9435173B
:1005F000C70169EA72E00E94611705C0C70161E0A6
:1006000072E00E941C17C7010FB6F894DEBE0FBE41
:10061000CDBECF91DF911F910F91FF90EF90DF90B2
:10062000CF900895CF92DF92EF92FF920F931F9396
:10063000DF93CF93CDB7DEB727970FB6F894DEBF21
:100640000FBECDBF8E010F5F1F4FC8018EDFC801E7
:1006500061E072E00E949416882309F059C2C80133
:1006600060E070E00E947F16C80160E070E00E94C8
:100670007F16FC018081813061F46091B20270913B
:10068000B3028EE293E005D6682F8FE695E00E94D4
:1006900081137E010894E11CF11CC70160E070E049
:1006A0000E947F16FC0180818230A1F56091B40226
:1006B0007091B5028EE293E0ECD5019721F48FE6BC
:1006C00095E060E025C00091B2021091B302C7012D
:1006D00061E070E00E947F16FC014081552747FDD4
:1006E00050958EE293E0B8011FD66091B4027091EC
:1006F000B5028EE293E041E050E016D66091B2027E
:100700007091B3028EE293E0C4D5682F8FE695E036
:100710000E948113CE01019660E070E00E947F1676
:10072000FC018081833029F48FE695E06CE00E9423
:100730008113CE01019660E070E00E947F16FC01FB
:100740008081853031F48FE695E0609127030E9427
:1007500081138E010F5F1F4FC80160E070E00E949F
:100760007F16FC018081863071F4C80161E070E081
:100770000E947F16FC016081609326038FE695E05E
:100780000E948113B0DECE01019660E070E00E940D
:100790007F16FC018081873031F48FE695E060910F
:1007A00026030E9481138E010F5F1F4FC80160E076
:1007B00070E00E947F16FC018081883009F096C0AD
:1007C000C80161E070E00E947F16FC01808180FF1B
:1007D00003C084E061E002C084E060E00E94EF0FAB
:1007E000CE01019661E070E00E947F16FC018081DD
:1007F00081FF03C085E061E002C085E060E00E9407
:10080000EF0FCE01019661E070E00E947F16FC01BF
:10081000808182FF03C086E061E002C086E060E084
:100820000E94EF0FCE01019661E070E00E947F16FA
:10083000FC01808183FF03C087E061E002C087E0A4
:1008400060E00E94EF0FCE01019661E070E00E942F
:100850007F16FC01808184FF03C088E061E002C054
:1008600088E060E00E94EF0FCE01019661E070E049
:100870000E947F16FC01808185FF03C089E061E052
:1008800002C089E060E00E94EF0FCE01019661E0B6
:1008900070E00E947F16FC01808186FF03C08AE021
:1008A00061E002C08AE060E00E94EF0FCE01019695
:1008B00061E070E00E947F16FC01808187FF03C029
:1008C0008BE061E002C08BE060E00E94EF0FCE01A0
:1008D000019661E070E00E947F16FC01608177273D
:1008E00067FD70958FE695E00E9481136E01089474
:1008F000C11CD11CC60160E070E00E947F16FC01A3
:1009000080818930C9F552EDE52E52E0F52E00E0E8
:1009100010E0C60161E070E00E947F16FC0180815A
:10092000992787FD9095002E02C0959587950A948A
:10093000E2F780FF06C081E090E0F70191838083B9
:1009400003C0F701118210820F5F1F4F82E090E019
:10095000E80EF91E09301105E1F6CE01019661E0BD
:1009600070E00E947F16FC016081772767FD70951B
:100970008FE695E00E9481138E010F5F1F4FC80123
:1009800060E070E00E947F16FC0180818A3009F0EF
:100990003DC0C80161E070E00E947F16FC018081CB
:1009A000823099F482E090E09093C7028093C6026F
:1009B0006091B0027091B1028EE293E042E050E0AB
:1009C000B3D48FE695E062E01FC0C80161E070E03B
:1009D0000E947F16FC018081833099F483E090E0CF
:1009E0009093C7028093C6026091B0027091B102E9
:1009F0008EE293E043E050E097D48FE695E063E029
:100A000003C08FE695E060E00E948113CE0101965D
:100A100060E070E00E947F16FC0180818B3031F431
:100A20008FE695E06091C6020E9481138E010F5FF0
:100A30001F4FC80160E070E00E947F16FC018081BA
:100A40008C30C1F5C80161E070E00E947F16FC01A6
:100A50008081882371F41092C9021092C8026091BB
:100A6000B6027091B7028EE293E040E050E05CD4B1
:100A70001CC0C80161E070E00E947F16FC0180810B
:100A8000813099F481E090E09093C9028093C8028C
:100A90006091B6027091B7028EE293E041E050E0BF
:100AA00043D48FE695E061E003C08FE695E060E017
:100AB0000E948113CE01019660E070E00E947F16D3
:100AC000FC0180818D3031F48FE695E06091C802A1
:100AD0000E9481138E010F5F1F4FC80160E070E01C
:100AE0000E947F16FC0180818E3091F4C80161E084
:100AF00070E00E947F16FC016081772767FD70958A
:100B000070932803609327038FE695E00E9481137A
:100B1000CE0101960E946A1727960FB6F894DEBFA1
:100B20000FBECDBFCF91DF911F910F91FF90EF903E
:100B3000DF90CF90089586E361E00E94EF0F60EDB3
:100B400077E080E090E00E94810E87E361E00E9400
:100B5000EF0F60ED77E080E090E00E94810E88E387
:100B600061E00E94EF0F60ED77E080E090E00E948E
:100B7000810E89E361E00E94EF0F60ED77E080E095
:100B800090E00E94810E8AE361E00E94EF0F60ED29
:100B900077E080E090E00E94810E8BE361E00E94AC
:100BA000EF0F60ED77E080E090E00E94810E84E03E
:100BB00061E00E94EF0F60ED77E080E090E00E943E
:100BC000810E85E061E00E94EF0F60ED77E080E04C
:100BD00090E00E94810E86E061E00E94EF0F60EDE0
:100BE00077E080E090E00E94810E87E061E00E9463
:100BF000EF0F60ED77E080E090E00E94810E88E0EA
:100C000061E00E94EF0F60ED77E080E090E00E94ED
:100C1000810E89E061E00E94EF0F60ED77E080E0F7
:100C200090E00E94810E8AE061E00E94EF0F60ED8B
:100C300077E080E090E00E94810E8BE061E00E940E
:100C4000EF0F60ED77E080E090E00E94810E86E398
:100C500060E00E94EF0F60ED77E080E090E00E949E
:100C6000810E87E360E00E94EF0F60ED77E080E0A7
:100C700090E00E94810E88E360E00E94EF0F60ED3B
:100C800077E080E090E00E94810E89E360E00E94BE
:100C9000EF0F60ED77E080E090E00E94810E8AE344
:100CA00060E00E94EF0F60ED77E080E090E00E944E
:100CB000810E8BE360E00E94EF0F60ED77E080E053
:100CC00090E00E94810E84E060E00E94EF0F60EDF2
:100CD00077E080E090E00E94810E85E060E00E9475
:100CE000EF0F60ED77E080E090E00E94810E86E0FB
:100CF00060E00E94EF0F60ED77E080E090E00E94FE
:100D0000810E87E060E00E94EF0F60ED77E080E009
:100D100090E0F7D788E060E00E94EF0F60ED77E0A9
:100D200080E090E0EED789E060E00E94EF0F60ED98
:100D300077E080E090E0E5D78AE060E00E94EF0F86
:100D400060ED77E080E090E0DCD78BE060E00C9431
:100D5000EF0F0F931F93CF93DF9390E080912903C0
:100D6000882309F491E090932903C2EDD2E014E0C6
:100D700088819981019729F4812F609129030E942C
:100D8000EF0F22961F5F1D3099F70AEB12E0C0E0CB
:100D9000D0E0F80180819181181619060CF051C03D
:100DA000019791838083C230D10531F1C330D105E1
:100DB0003CF4209779F0C130D10509F042C013C04E
:100DC000C430D10559F1C430D105FCF0C530D1058E
:100DD000C1F52DC086E30E94211060E0892B09F443
:100DE00061E086E32CC087E30E94211060E0892B3C
:100DF00009F461E087E323C088E30E94211060E0EA
:100E0000892B09F461E088E31AC089E30E9421106C
:100E100060E0892B09F461E089E311C08AE30E9454
:100E2000211060E0892B09F461E08AE308C08BE3BC
:100E30000E94211060E0892B09F461E08BE30E949D
:100E4000EF0F21960E5F1F4FC630D10509F0A1CFDD
:100E5000DF91CF911F910F910895EF92FF920F9321
:100E60001F93E0908302F09084020091850210911C
:100E70008602E114F1040105110539F10ED728ECC1
:100E800030E040E050E0E20EF31E041F151FE616AE
:100E9000F7060807190798F460918B0270918C028D
:100EA00080E042E050E081D41092830210928402EC
:100EB00010928502109286021092B80206C0EDD6FA
:100EC000683C71058105910538F3E0908702F09048
:100ED00088020091890210918A02E114F10401054F
:100EE000110531F1DAD628EC30E040E050E0E20EB6
:100EF000F31E041F151FE616F7060807190730F042
:100F0000CCD6683C71058105910590F460918D0205
:100F100070918E0281E042E050E047D41092870247
:100F2000109288021092890210928A021092B902DD
:100F30001F910F91FF90EF90089574DB8ECFCF92A9
:100F4000DF92EF92FF920F931F93CF93DF936C0189
:100F5000B2D6F601EE0FFF1FEE0FFF1FDF01A45008
:100F6000BD4F6D937D938D939C9313976D917D9160
:100F70008D919C911397EC51FD4FE080F18002819F
:100F800013812D913D914D915C912083318342835A
:100F900053836E197F09800B910BC6D9EC01F601C2
:100FA000EE0FFF1FDF01A05EBC4F8D919C9111974A
:100FB000EC0DFD1DE80FF91FEE0FFF1FEC5EFC4F5F
:100FC000D183C0830D90BC91A02D8091C6029091D9
:100FD000C7020197A817B90719F4A0E0B0E001C053
:100FE0001196C601880F991FFC01E05EFC4FB1838A
:100FF000A083209719F0C730D105A1F4FC01EC0DB6
:10100000FD1DEE0FFF1FDF01AC5EBC4F11961C9261
:101010001E92EA5EFC4F1182108215961C921E925F
:1010200014974DC0C60139D9813009F048C035D672
:10103000F601EE0FFF1FEE0FFF1FED57FD4F608310
:101040007183828393838C2D2CD48091270390917C
:101050002803009739F58FE695E0BE014AE050E09D
:101060000E9409168091C8029091C902009749F424
:10107000CC0FDD1FC854DD4FC6010196880F991FA4
:101080000EC00197A9F4C114D10419F082E090E0D8
:1010900002C084E090E0CC0FDD1FC854DD4F99837F
:1010A000888306C0019721F4C601BE01AFD91BDABF
:1010B00088EB92E0C80ED91E81E0F6018083DF91B3
:1010C000CF911F910F91FF90EF90DF90CF900895F7
:1010D0008091B902882319F481E090E030CF08951F
:1010E0008091B802882319F480E090E028CF089519
:1010F0008FE695E040E056E960E070E00E949112D2
:101100008FE695E044E650E060E070E00E942C1627
:10111000F8948EE293E062E070E02FD19093B102F8
:101120008093B0028EE293E062E070E026D190936B
:10113000B3028093B2028EE293E062E070E01DD1D0
:101140009093B5028093B4028EE293E062E070E087
:1011500014D19093B7028093B60282E060E08CD6FF
:1011600082E061E03CD783E060E086D683E061E026
:1011700036D786E361E080D687E361E07DD688E3F9
:1011800061E07AD689E361E077D68AE361E074D6DC
:101190008BE361E071D684E061E06ED685E061E0CA
:1011A0006BD686E061E068D687E061E065D688E0CE
:1011B00061E062D689E061E05FD68AE061E05CD6FA
:1011C0008BE061E059D649DEB6DC80E393E040EE87
:1011D00053E964E070E090D180E393E069EA76E05F
:1011E0002FEF3FEF4FEF5FEF8DD16091B002709125
:1011F000B1028EE293E04DD09093C7028093C60275
:101200000297029778F082E090E09093C702809373
:10121000C6026091B0027091B1028EE293E042E0AA
:1012200050E082D06091B6027091B7028EE293E0F6
:1012300030D09093C9028093C802029768F0109250
:10124000C9021092C8026091B0027091B1028EE2A0
:1012500093E040E050E068D082E08093A802789468
:10126000089584E690E090932F0380932E030895D1
:1012700080918F02909190028617970714F081E079
:1012800008958FE695E069E072E00E941B1680E009
:101290000895CF93DF93EB016E5F7F4FE9DF8823E3
:1012A00019F420E030E011C0F999FECFD2BDC1BDE4
:1012B000F89A90B5F999FECF2196D2BDC1BDF89AA2
:1012C00080B5292F382FC9019C01C901DF91CF9129
:1012D0000895FC0180912C0390912D030196909329
:1012E0002D0380932C030190F081E02D309719F0AD
:1012F000E817F90744F48FE695E063E372E00E9493
:101300001B1680E0089580918F02909190028617BD
:10131000970714F081E008958FE695E069E072E0A8
:101320000E941B1680E008950F931F93CF93DF93C5
:10133000EB01142F052F6E5F7F4FCBDF8823C1F0A9
:10134000F999FECF1FBAD2BDC1BD10BD0FB6F8943A
:10135000FA9AF99A0FBEF999FECF1FBA2196D2BD1B
:10136000C1BD00BD0FB6F894FA9AF99A0FBE81E09C
:10137000DF91CF911F910F910895CF93DF93C0918B
:101380002A03D0912B036C0F7D1F70932B03609366
:101390002A0380918F0290919002861797074CF450
:1013A0008FE695E069E072E00E941B16D095C1952A
:1013B000DF4FCE01DF91CF9108951F920F920FB6AC
:1013C0000F920BB60F9211242F933F934F935F937D
:1013D0006F937F938F939F93AF93BF93EF93FF93FD
:1013E000E0913403F09135031995FF91EF91BF918E
:1013F000AF919F918F917F916F915F914F913F91AD
:101400002F910F900BBE0F900FBE0F901F9018954D
:10141000FC01A3E0440F551F661F771FAA95D1F763
:10142000403080E0580781E0680780E0780714F4D6
:1014300081E010C033E075956795579547953A95CB
:10144000D1F7403080E0580781E0680780E07807F6
:101450001CF482E0828339C023E075956795579527
:1014600047952A95D1F7403080E0580781E068071A
:1014700080E0780714F483E0EDCF92E075956795EE
:10148000579547959A95D1F7403080E0580781E00D
:10149000680780E0780714F484E0DCCF82E075957B
:1014A0006795579547958A95D1F7403080E0580762
:1014B00081E0680780E0780714F485E0CBCF85E011
:1014C00082834FEF5FEF60E070E08FB78383F89423
:1014D00051834083509387004093860083818FBF60
:1014E00080918100887F809381008091810092812A
:1014F000892B8093810008951092800020E1209331
:10150000810086CF0F931F93CF93DF93EC018B0164
:1015100012161306140615061CF4BA01A90178DF89
:101520001D830C8381E080936F00809181009A81FC
:10153000892B80938100DF91CF911F910F910895A6
:101540000F931F93CF93DF93BC018230910510F46A
:1015500062E070E0E091FA05F091FB0540E050E0B8
:10156000A0E0B0E024C08081918186179707D0F079
:101570008617970771F482819381109729F013964B
:101580009C938E9312972CC09093FB058093FA0541
:1015900027C04115510519F08417950718F48D01DE
:1015A000AC01EF01DF01828193819C01F901309749
:1015B000D1F641155105F9F0CA01861B970B84300D
:1015C000910580F48A819B810115110521F0F801B4
:1015D0009383828304C09093FB058093FA05FE01F8
:1015E000329645C0FE01E80FF91F6193719302978F
:1015F000998388833CC08091F8059091F905892BE7
:1016000041F480919302909194029093F905809314
:10161000F80540919502509196024115510541F40B
:101620004DB75EB78091910290919202481B590B81
:101630002091F8053091F90524173507B0F4CA0157
:10164000821B930B8617970780F0AB014E5F5F4FAD
:101650008417950750F0420F531F5093F90540939C
:10166000F805F9016193719302C0E0E0F0E0CF0169
:10167000DF91CF911F910F910895CF93DF939C013C
:10168000009709F48FC0EC0122971B821A826091A7
:10169000FA057091FB056115710581F488819981C6
:1016A000820F931F2091F8053091F905281739070B
:1016B00039F5D093F905C093F80574C0DB0140E01B
:1016C00050E0AC17BD0708F1BB83AA83FE0121914E
:1016D0003191E20FF31FAE17BF0779F48D919C9102
:1016E0001197280F391F2E5F3F4F39832883129699
:1016F0008D919C9113979B838A834115510571F4B9
:10170000D093FB05C093FA054DC012968D919C9124
:101710001397AD01009711F0DC01D3CFDA011396D6
:10172000DC93CE931297FA0121913191E20FF31FCE
:10173000CE17DF0769F488819981280F391F2E5F42
:101740003F4FFA01318320838A819B819383828377
:10175000E0E0F0E0DB0112968D919C9113970097E9
:1017600019F0BC01FD01F6CFAB014E5F5F4FDB010D
:101770008D919C91840F951F2091F8053091F9056A
:101780002817390779F4309729F41092FB05109245
:10179000FA0502C013821282425050405093F9055C
:1017A0004093F805DF91CF910895883008F078C014
:1017B000E82FF0E0EE0FFF1FEA5CFC4F71836083BF
:1017C0008330D9F0843030F4813009F444C0823061
:1017D00060F439C0853051F18530D8F0863009F495
:1017E00046C0873009F05CC04FC0809169008C7F93
:1017F000842B80936900E89A089580916900440FD2
:10180000551F440F551F837F842B80936900E99AED
:1018100008958091690074E0440F551F7A95E1F7AF
:101820008F7C842B80936900EA9A089580916900E7
:1018300066E0440F551F6A95E1F78F73842B809300
:101840006900EB9A089580916A008C7F842B8093C5
:101850006A00EC9A089580916A00440F551F440F66
:10186000551F837F842B80936A00ED9A08958091A1
:101870006A0024E0440F551F2A95E1F78F7C842BE2
:1018800080936A00EE9A089580916A0096E0440F72
:10189000551F9A95E1F78F73842B80936A00EF9A16
:1018A0000895883048F5833091F0843028F48130F1
:1018B000B1F0823050F411C0853069F0853048F0C5
:1018C000863079F0873081F40EC0E8980DC0E99831
:1018D0000BC0EA9809C0EB9807C0EC9805C0ED98DA
:1018E00003C0EE9801C0EF98E82FF0E0EE0FFF1F65
:1018F000EA5CFC4F1182108208951F920F920FB67E
:101900000F920BB60F9211242F933F934F935F9337
:101910006F937F938F939F93AF93BF93EF93FF93B7
:1019200080913A0390913B03892B29F0E0913A038F
:10193000F0913B031995FF91EF91BF91AF919F916A
:101940008F917F916F915F914F913F912F910F9068
:101950000BBE0F900FBE0F901F9018951F920F9205
:101960000FB60F920BB60F9211242F933F934F9304
:101970005F936F937F938F939F93AF93BF93EF93F7
:10198000FF9380913C0390913D03892B29F0E091D6
:101990003C03F0913D031995FF91EF91BF91AF91F9
:1019A0009F918F917F916F915F914F913F912F9177
:1019B0000F900BBE0F900FBE0F901F9018951F92A7
:1019C0000F920FB60F920BB60F9211242F933F93E5
:1019D0004F935F936F937F938F939F93AF93BF9337
:1019E000EF93FF9380913E0390913F03892B29F061
:1019F000E0913E03F0913F031995FF91EF91BF9164
:101A0000AF919F918F917F916F915F914F913F9196
:101A10002F910F900BBE0F900FBE0F901F90189537
:101A20001F920F920FB60F920BB60F9211242F93A5
:101A30003F934F935F936F937F938F939F93AF9356
:101A4000BF93EF93FF938091400390914103892BC3
:101A500029F0E0914003F09141031995FF91EF9136
:101A6000BF91AF919F918F917F916F915F914F91B6
:101A70003F912F910F900BBE0F900FBE0F901F90B4
:101A800018951F920F920FB60F920BB60F9211245A
:101A90002F933F934F935F936F937F938F939F9376
:101AA000AF93BF93EF93FF938091360390913703E9
:101AB000892B29F0E0913603F09137031995FF91B6
:101AC000EF91BF91AF919F918F917F916F915F91B6
:101AD0004F913F912F910F900BBE0F900FBE0F9023
:101AE0001F9018951F920F920FB60F920BB60F9280
:101AF00011242F933F934F935F936F937F938F9313
:101B00009F93AF93BF93EF93FF938091380390918E
:101B10003903892B29F0E0913803F09139031995A5
:101B2000FF91EF91BF91AF919F918F917F916F91B5
:101B30005F914F913F912F910F900BBE0F900FBE71
:101B40000F901F9018951F920F920FB60F920BB621
:101B50000F9211242F933F934F935F936F937F9333
:101B60008F939F93AF93BF93EF93FF938091420323
:101B700090914303892B29F0E0914203F0914303B4
:101B80001995FF91EF91BF91AF919F918F917F91A7
:101B90006F915F914F913F912F910F900BBE0F90DE
:101BA0000FBE0F901F9018951F920F920FB60F92B5
:101BB0000BB60F9211242F933F934F935F936F9324
:101BC0007F938F939F93AF93BF93EF93FF938091F6
:101BD000440390914503892B29F0E0914403F0914F
:101BE00045031995FF91EF91BF91AF919F918F910F
:101BF0007F916F915F914F913F912F910F900BBE0D
:101C00000F900FBE0F901F9018951F920F920FB656
:101C10000F9211242F933F938F939F93AF93BF9372
:101C200080914A0390914B03A0914C03B0914D03D6
:101C300030914E030196A11DB11D232F2D5F2D372D
:101C400020F02D570196A11DB11D20934E038093C6
:101C50004A0390934B03A0934C03B0934D038091A0
:101C6000460390914703A0914803B0914903019620
:101C7000A11DB11D8093460390934703A093480391
:101C8000B0934903BF91AF919F918F913F912F9155
:101C90000F900FBE0F901F9018958FB7F89420915A
:101CA0004A0330914B0340914C0350914D038FBF39
:101CB000B901CA0108959FB7F89420914603309165
:101CC0004703409148035091490386B5A89B06C03D
:101CD0008F3F21F02F5F3F4F4F4F5F4F9FBF542FDC
:101CE000432F322F2227280F311D411D511D82E025
:101CF000220F331F441F551F8A95D1F7B901CA011E
:101D000008959B01AC017FB7F894809146039091B0
:101D10004703A0914803B091490366B5A89B05C04D
:101D20006F3F19F00196A11DB11D7FBFBA2FA92FDA
:101D3000982F8827860F911DA11DB11D62E0880F85
:101D4000991FAA1FBB1F6A95D1F7BC012DC0FFB711
:101D5000F8948091460390914703A0914803B09175
:101D60004903E6B5A89B05C0EF3F19F00196A11DF8
:101D7000B11DFFBFBA2FA92F982F88278E0F911D55
:101D8000A11DB11DE2E0880F991FAA1FBB1FEA9594
:101D9000D1F7861B970B885E9340C8F221503040E4
:101DA0004040504068517C4F211531054105510597
:101DB00071F60895789484B5826084BD84B581609D
:101DC00084BD85B5826085BD85B5816085BDEEE643
:101DD000F0E0808181608083E1E8F0E01082808122
:101DE00082608083808181608083E0E8F0E0808190
:101DF00081608083E1EBF0E0808184608083E0EBB0
:101E0000F0E0808181608083E1E9F0E080818260A0
:101E10008083808181608083E0E9F0E0808181605F
:101E20008083E1EAF0E0808182608083808181604C
:101E30008083E0EAF0E0808181608083E1E2F1E08C
:101E4000808182608083808181608083E0E2F1E034
:101E5000808181608083EAE7F0E080818460808314
:101E600080818260808380818160808380818068BE
:101E700080831092C1000895CF93DF93482F50E0E4
:101E8000CA0188589E4FFC0134914E5C5E4FFA01A6
:101E90008491882369F190E0880F991FFC01EC512F
:101EA000FF4FA591B491FC01E250FF4FC591D49131
:101EB000662351F42FB7F8948C91932F9095892332
:101EC0008C93888189230BC0623061F42FB7F8941A
:101ED0008C91932F909589238C938881832B888371
:101EE0002FBF06C09FB7F8948C91832B8C939FBF14
:101EF000DF91CF910895893009F449C08A30A0F468
:101F0000843051F1853040F4823079F1833000F52E
:101F1000813009F063C026C0873079F1883098F5A8
:101F2000863009F05BC025C08D3009F442C08E3088
:101F300028F48B30B1F18C30C0F52DC0803109F41C
:101F400042C0813109F445C08F3009F047C037C025
:101F5000809180008F7703C0809180008F7D809377
:101F60008000089584B58F7702C084B58F7D84BDCD
:101F700008958091B0008F7703C08091B0008F7D6D
:101F80008093B0000895809190008F7707C0809172
:101F900090008F7D03C080919000877F8093900098
:101FA00008958091A0008F7707C08091A0008F7D59
:101FB00003C08091A000877F8093A0000895809146
:101FC00020018F7703C0809120018F7D80932001B5
:101FD000089580912001877F809320010895FF92CA
:101FE0000F931F93F62E482F50E0CA0182549E4F44
:101FF000FC012491CA0188589E4FFC0114914E5C4B
:102000005E4FFA0104910023C1F0222311F0822FC8
:1020100072DFE02FF0E0EE0FFF1FE250FF4FA591BF
:10202000B4919FB7F894FF2021F48C9110958123EF
:1020300002C08C91812B8C939FBF1F910F91FF90B9
:1020400008950F931F93482F50E0CA0182549E4F6A
:10205000FC012491CA0188589E4FFC0104914E5CFA
:102060005E4FFA011491112319F420E030E014C0FE
:10207000222311F0822F3FDF812F90E0880F991FDC
:10208000885E9E4FFC01A591B4918C9120E030E0D8
:10209000802311F021E030E0C9011F910F910895D4
:1020A00008951F920F920FB60F920BB60F92112444
:1020B0002F933F934F938F939F93EF93FF93809131
:1020C000C00082FD1DC04091C60020918F03309159
:1020D00090032F5F3F4F2F73307080919103909149
:1020E00092032817390771F0E0918F03F091900364
:1020F000E15BFC4F40833093900320938F0302C039
:102100008091C600FF91EF919F918F914F913F91E8
:102110002F910F900BBE0F900FBE0F901F90189530
:1021200008951F920F920FB60F920BB60F921124C3
:102130002F933F934F938F939F93EF93FF938091B0
:10214000C80082FD1DC04091CE002091170430913F
:1021500018042F5F3F4F2F733070809119049091B6
:102160001A042817390771F0E0911704F091180448
:10217000E952FC4F4083309318042093170402C0A7
:102180008091CE00FF91EF919F918F914F913F9160
:102190002F910F900BBE0F900FBE0F901F901895B0
:1021A00008951F920F920FB60F920BB60F92112443
:1021B0002F933F934F938F939F93EF93FF93809130
:1021C000D00082FD1DC04091D60020919F04309127
:1021D000A0042F5F3F4F2F7330708091A104909126
:1021E000A2042817390771F0E0919F04F091A00430
:1021F000E15AFB4F40833093A00420939F0402C018
:102200008091D600FF91EF919F918F914F913F91D7
:102210002F910F900BBE0F900FBE0F901F9018952F
:1022200008951F920F920FB60F920BB60F921124C2
:102230002F933F934F938F939F93EF93FF938091AF
:10224000300182FD1DC0409136012091270530915B
:1022500028052F5F3F4F2F73307080912905909193
:102260002A052817390771F0E0912705F091280514
:10227000E951FB4F4083309328052093270502C086
:1022800080913601FF91EF919F918F914F913F91F6
:102290002F910F900BBE0F900FBE0F901F901895AF
:1022A000E0917B05F0917C05E05CFF4F819191917D
:1022B00020813181821B930B8F739070892B09F0E1
:1022C000EFDEE0919D05F0919E05E05CFF4F81916E
:1022D000919120813181821B930B8F739070892B98
:1022E00009F01EDFE091BF05F091C005E05CFF4FF3
:1022F0008191919120813181821B930B8F7390701A
:10230000892B09F04DDFE091E105F091E205E05CF9
:10231000FF4F8191919120813181821B930B8F73AB
:102320009070892B09F07CCF08951F920F920FB601
:102330000F920BB60F9211242F933F938F939F937D
:10234000EF93FF932091D3033091D4038091D50371
:102350009091D6032817390731F48091C1008F7D01
:102360008093C10014C0E091D503F091D603ED56DF
:10237000FC4F20818091D5039091D60301968F73F5
:1023800090709093D6038093D5032093C600FF915D
:10239000EF919F918F913F912F910F900BBE0F90D6
:1023A0000FBE0F901F9018951F920F920FB60F92AD
:1023B0000BB60F9211242F933F938F939F93EF931C
:1023C000FF9320915B0430915C0480915D049091B7
:1023D0005E042817390731F48091C9008F7D8093FE
:1023E000C90014C0E0915D04F0915E04E55EFB4F0E
:1023F000208180915D0490915E0401968F739070AE
:1024000090935E0480935D042093CE00FF91EF9142
:102410009F918F913F912F910F900BBE0F900FBE08
:102420000F901F9018951F920F920FB60F920BB638
:102430000F9211242F933F938F939F93EF93FF93CA
:102440002091E3043091E4048091E5049091E60446
:102450002817390731F48091D1008F7D8093D10006
:1024600014C0E091E504F091E604ED55FB4F2081A6
:102470008091E5049091E60401968F73907090939B
:10248000E6048093E5042093D600FF91EF919F919D
:102490008F913F912F910F900BBE0F900FBE0F9019
:1024A0001F9018951F920F920FB60F920BB60F92B6
:1024B00011242F933F938F939F93EF93FF9320913A
:1024C0006B0530916C0580916D0590916E05281714
:1024D000390731F4809131018F7D8093310114C02F
:1024E000E0916D05F0916E05E55DFA4F20818091D8
:1024F0006D0590916E0501968F73907090936E05A7
:1025000080936D0520933601FF91EF919F918F91FC
:102510003F912F910F900BBE0F900FBE0F901F9009
:102520001895AF92BF92DF92EF92FF920F931F9395
:10253000CF93DF93EC017A018B01DD24403081EEF3
:10254000580780E0680780E0780711F0DD24D39415
:1025500091E0A92EB12CEC89FD89DD2069F0C5013F
:1025600008A002C0880F991F0A94E2F7808360E0F8
:1025700079E08DE390E005C0108260E874E88EE1B8
:1025800090E0A8019701ABD5215030404040504029
:10259000569547953795279580E12030380720F0EC
:1025A000DD2011F0DD24D7CFE889F9893083EA896D
:1025B000FB89208319A2EE89FF89408121E030E068
:1025C000C9010C8C02C0880F991F0A94E2F7482BAE
:1025D0004083EE89FF894081C9010D8C02C0880FBC
:1025E000991F0A94E2F7482B4083EE89FF894081C6
:1025F000C9010E8C02C0880F991F0A94E2F7482B7C
:102600004083EE89FF8980810F8C02C0220F331F27
:102610000A94E2F7209528232083DF91CF911F9120
:102620000F91FF90EF90DF90BF90AF900895DC0185
:102630001C96ED91FC911D97E05CFF4F219131912B
:1026400080819181281B390B2F733070C901089547
:10265000DC011C96ED91FC911D97E05CFF4F208101
:102660003181E054F040DF01AE5BBF4F8D919C9112
:1026700011972817390719F42FEF3FEF07C08D91F5
:102680009C91E80FF91F8081282F30E0C90108953F
:10269000DC011C96ED91FC911D97E05CFF4F2081C1
:1026A0003181E054F040DF01AE5BBF4F8D919C91D2
:1026B00011972817390719F42FEF3FEF10C08D91AC
:1026C0009C911197E80FF91F20818D919C91119792
:1026D00001968F73907011969C938E9330E0C90190
:1026E0000895DC0191968C919197882339F0549646
:1026F000ED91FC915597808186FFF9CF91961C92C0
:102700000895CF93DF93EC01EE85FF85E05CFF4FEA
:1027100020813181E054F0402F5F3F4F2F733070A4
:10272000DF01AE5BBF4F8D919C9111972817390740
:10273000D1F3E05CFF4F80819181E054F040E80FDD
:10274000F91F6083EE85FF85E05CFF4F31832083B6
:10275000EE89FF89208181E090E00F8C02C0880F14
:10276000991F0A94E2F7282B208381E089A3EC8942
:10277000FD8980818064808381E090E0DF91CF914A
:1027800008951F93109272051092710528EE33E0A0
:1027900040E050E020937305309374054093750535
:1027A000509376056BE972E07093700560936F0546
:1027B0008FE493E090937C0580937B0583E993E01D
:1027C00090937E0580937D0585EC90E09093800545
:1027D00080937F0584EC90E090938205809381053F
:1027E00080EC90E0909384058093830581EC90E0E9
:1027F000909386058093850582EC90E09093880500
:102800008093870586EC90E090938A0580938905F4
:1028100014E010938B05B3E0B0938C05A7E0A09370
:102820008D05F5E0F0938E05E1E0E0938F051092C1
:102830009405109293052093950530939605409347
:10284000970550939805709392056093910587EDD5
:1028500093E090939E0580939D058BE194E0909387
:10286000A00580939F058DEC90E09093A205809346
:10287000A1058CEC90E09093A4058093A30588ECCF
:1028800090E09093A6058093A50589EC90E0909345
:10289000A8058093A7058AEC90E09093AA05809301
:1028A000A9058EEC90E09093AC058093AB05109356
:1028B000AD05B093AE05A093AF05F093B005E093DE
:1028C000B1051092B6051092B5052093B705309367
:1028D000B8054093B9055093BA057093B405609359
:1028E000B3058FE594E09093C0058093BF0583EA1C
:1028F00094E09093C2058093C10585ED90E090939C
:10290000C4058093C30584ED90E09093C605809341
:10291000C50580ED90E09093C8058093C70581EDD3
:1029200090E09093CA058093C90582ED90E0909362
:10293000CC058093CB0586ED90E09093CE058093F7
:10294000CD051093CF05B093D005A093D105F0939A
:10295000D205E093D3051092D8051092D7052093A5
:10296000D9053093DA054093DB055093DC0570936D
:10297000D6056093D50587EE94E09093E2058093A9
:10298000E1058BE295E09093E4058093E30585E310
:1029900091E09093E6058093E50584E391E09093C0
:1029A000E8058093E70580E391E09093EA05809342
:1029B000E90581E391E09093EC058093EB0582E3D8
:1029C00091E09093EE058093ED0586E391E090937E
:1029D000F0058093EF051093F105B093F205A093F5
:1029E000F305F093F405E093F5051F910895CF9357
:1029F000DF93E0D90E947808C0E5D1E10E949D07ED
:102A00002097E1F34DDCFACFCF92DF92EF92FF9265
:102A10000F931F93CF93DF937C016B018A01C0E07A
:102A2000D0E00FC0D6016D916D01D701ED91FC9101
:102A30000190F081E02DC7011995C80FD91F0150F1
:102A400010400115110571F7CE01DF91CF911F9153
:102A50000F91FF90EF90DF90CF900895EF92FF924B
:102A60000F931F938C01DC01ED91FC910190F0819B
:102A7000E02D6DE019957C01D801ED91FC9101905C
:102A8000F081E02DC8016AE019959C012E0D3F1DD3
:102A9000C9011F910F91FF90EF900895CF93DF939D
:102AA000EC016115710519F420E030E00FC0DB0185
:102AB0000D900020E9F71197A61BB70BE881F9816B
:102AC0000280F381E02DAD0119959C01C901DF91D0
:102AD000CF9108954F925F927F928F929F92AF9283
:102AE000BF92CF92DF92EF92FF920F931F93DF93EB
:102AF000CF93CDB7DEB7A1970FB6F894DEBF0FBE68
:102B0000CDBF2C01742ECB01223008F42AE019A28B
:102B100031E2C32ED12CCC0EDD1E822E9924AA24A4
:102B2000BB24672D752FA5019401D9D279018A01A3
:102B3000C801B701A5019401B3D2472D461B0894E3
:102B4000C108D1084A3014F4405D01C0495CF60167
:102B50004083E114F1040105110521F07E2C5F2D65
:102B6000C801DFCFC201B60199DFA1960FB6F89474
:102B7000DEBF0FBECDBFCF91DF911F910F91FF90B0
:102B8000EF90DF90CF90BF90AF909F908F907F900D
:102B90005F904F900895CF92DF92EF92FF920F9344
:102BA0001F93CF93DF93EC016A017B01211531055F
:102BB00041F4E881F9810190F081E02D642F1995AD
:102BC0001DC02A303105C9F477FF16C0E881F981AC
:102BD0000190F081E02D6DE219958C014427552775
:102BE000BA014C195D096E097F09CE012AE072DF36
:102BF0009801280F391F03C02AE06CDF9C01C9012E
:102C0000DF91CF911F910F91FF90EF90DF90CF90C8
:102C10000895EF92FF920F931F937B019A01002773
:102C2000F7FC0095102FB801A701B5DF1F910F9198
:102C3000FF90EF900895EF92FF920F931F937C0106
:102C40002DDF8C01C7010ADF080F191FC8011F9172
:102C50000F91FF90EF900895FC01448355836683A4
:102C600077830895CF93DF93EC0117D8688779872E
:102C70008A879B87E881F9810680F781E02DCE0164
:102C800019959C0197FF14C008D8288539854A8575
:102C90005B85621B730B840B950B2C813D814E81F0
:102CA0005F81621773078407950720F32FEF3FEFCB
:102CB000C901DF91CF910895CF92DF92EF92FF92F9
:102CC0000F931F93CF93DF936C018B017A01C0E0C8
:102CD000D0E008C0C601C6DF97FD07C0F8018193A8
:102CE0008F012196CE15DF05A8F3CE01DF91CF919C
:102CF0001F910F91FF90EF90DF90CF900895FC010E
:102D00009B01848195816817790728F4608171811E
:102D10006115710529F41092F70567EF75E002C09F
:102D2000620F731FCB010895DC01FB0114968D9196
:102D30009C911597892B31F461157105A9F090E0EC
:102D4000808108C00D90BC91A02D6115710529F4FA
:102D500090E08C91882349F407C0CD010E943D0189
:102D60009C0190E0232B09F491E0892F08950F93A3
:102D70001F93CF93DF93EC018B016F5F7F4F8881AF
:102D80009981ADD0009711F480E005C099838883C4
:102D90001B830A8381E0DF91CF911F910F910895EA
:102DA000CF93DF93EC0188819981892B29F08A8167
:102DB0009B818617970758F4CE01D9DF882341F00D
:102DC0008C819D81892B19F4E881F981108281E041
:102DD000DF91CF910895CF93DF93EC0188819981A2
:102DE000009711F00E943D0B198218821D821C82EF
:102DF0001B821A82DF91CF910895EF92FF920F9379
:102E00001F93CF93DF93EC017B018A01BA01C8DFE6
:102E1000882319F4CE01DFDF07C01D830C8388816E
:102E20009981B7010E944601CE01DF91CF911F9198
:102E30000F91FF90EF900895CF93DF93EC011982EB
:102E400018821B821A821D821C821E8261157105E6
:102E500049F0DB010D900020E9F71197A61BB70B95
:102E6000AD01CBDFDF91CF9108950F931F93182F02
:102E7000092F6115710551F0DB010D900020E9F774
:102E80001197A61BB70BAD01B8DF01C0A4DF812FDE
:102E9000902F1F910F910895CF93DF93EC01FB01C9
:102EA0008617970751F0608171816115710521F0D6
:102EB00044815581A2DF01C08EDFCE01DF91CF9129
:102EC0000895FC01118210821382128215821482ED
:102ED0001682E2CFFC01808191810C943D0B6F92B0
:102EE0007F928F929F92AF92BF92CF92DF92EF929A
:102EF000FF920F931F93CF93DF938C01009729F4D8
:102F0000CB010E94A00A8C01BBC08EEFE82E8FEF90
:102F1000F82EE00EF11E4801860E971E8E149F04B7
:102F200008F4ACC0D7014D915C9111974617570733
:102F3000B8F04530510508F4A3C0CA0104978617BC
:102F4000970708F49DC042505040461B570BF401B0
:102F5000419351936D937C93CF010E943D0B90C0A0
:102F60005B01A41AB50A3801640E751EA091FA051A
:102F7000B091FB05E0E0F0E0CC24DD2447C0A615CD
:102F8000B705A9F5CD91DC911197CE0102968A156E
:102F90009B0568F1CE018A199B09029612962C9125
:102FA000129713963C91059758F0F40122833383CE
:102FB000CA19DB09D183C083D7016D937C9309C003
:102FC0004E5F5F4F4C0F5D1FF70151834083C90176
:102FD000FC01C114D10431F0D6011396FC93EE9399
:102FE00012974EC0F093FB05E093FA0549C08D910E
:102FF0009C911197E817F90708F4FC016D011296EE
:103000008C91129713969C919C01D901109709F00D
:10301000B6CF8091F8059091F90586159705E9F4EA
:10302000E617F707D0F4209195023091960221150A
:10303000310541F42DB73EB78091910290919202F3
:10304000281B390B82169306C8F49092F9058092DA
:10305000F805F7017183608313C0CB010E94A00AB9
:10306000EC01009759F0D7014D915C91B8010E9495
:103070003401C8010E943D0B8E0102C000E010E047
:10308000C801DF91CF911F910F91FF90EF90DF90DA
:10309000CF90BF90AF909F908F907F906F9008954A
:1030A000629FD001739FF001829FE00DF11D649F2C
:1030B000E00DF11D929FF00D839FF00D749FF00DB8
:1030C000659FF00D9927729FB00DE11DF91F639F59
:1030D000B00DE11DF91FBD01CF0111240895A1E23A
:1030E0001A2EAA1BBB1BFD010DC0AA1FBB1FEE1F82
:1030F000FF1FA217B307E407F50720F0A21BB30BCD
:10310000E40BF50B661F771F881F991F1A9469F748
:1031100060957095809590959B01AC01BD01CF01A4
:103120000895EE0FFF1F0590F491E02D199412E021
:10313000CAE0D2E003C0FE01F6DF2296CC30D10710
:06314000D1F7F894FFCF67
:10314600004E6F206461746100417474656D707423
:1031560020746F207772697465206F757473696463
:1031660065206F6620454550524F4D206D656D6F49
:103176007279004578636565646564206D61786978
:103186006D756D206E756D626572206F6620777243
:10319600697465730043616E6E6F74206368616E57
:1031A6006765206365696C696E672C2062656C6F64
:1031B60077206973737565642061646472657373DF
:1031C6006573000100000001000000700868080037
:1031D600028000FC050000000000008113041517A2
:0831E6001348132813711300B4
:00000001FF
