:1000000005C100000C947A0A0C94AB0A0C94DC0A2B
:100010000C940D0B0C943E0B0C946F0B0C94A00BDA
:100020000C94D10B20C100001EC100001CC10000B7
:100030001AC1000018C1000016C1000014C1000060
:1000400012C1000010C100000EC100000CC1000070
:10005000B1C7000008C1000006C100000C94020CEA
:1000600002C100000C944E0E0C94920FFCC00000D4
:10007000FAC00000F8C00000F6C00000F4C00000A4
:10008000F2C00000F0C00000EEC00000ECC00000B4
:100090000C948E0E0C94D10FE6C00000E4C000005A
:1000A000E2C00000E0C00000DEC00000DCC00000D4
:1000B000DAC00000D8C00000D6C00000D4C00000E4
:1000C000D2C00000D0C00000CEC000000C94CE0E04
:1000D0000C941010C8C000000C940E0F0C944F101C
:1000E000C2C0000000002100240027002A002D00CB
:1000F0003000330001010000040107010A01000083
:100100002200250028002B002E00310034000201BF
:100110000000050108010B0100002000230026005B
:1001200029002C002F00320000010000030106010D
:10013000090105050505070508080808020202026D
:100140000A0A080804040404010101010101010173
:100150000303030303030303040707070C0C0C0C3E
:100160000C0C0C0C02020202060606060606060627
:100170000B0B0B0B0B0B0B0B0102102020080810B4
:100180002040102040800201020108040201010207
:1001900004081020408080402010080402018004E0
:1001A000020180402010080402010804020101023B
:1001B0000408102040800102040810204080000044
:1001C000090A02080B0C0D070603040100000000D9
:1001D000000000000000000000000000000000001F
:1001E0000000000000000000000011100F000000DF
:1001F00000000000000000000000000000000000FF
:100200000000000021022E07BE111C0211241FBE97
:10021000CFEFD1E2DEBFCDBF00E00CBF12E0A0E027
:10022000B2E0E0E4FDE200E00BBF02C007900D92F7
:10023000A83AB107D9F71BBE15E0A8EAB2E001C0A1
:100240001D92A93FB107E1F712E0CAE0D2E004C075
:100250002297FE010E949016C430D107C9F70E9470
:10026000F4120C949416CCCEFB01DC0102C0019078
:100270000D9241505040D8F70895FB01DC018D915B
:10028000019080190110D9F3990B0895FB01DC014D
:1002900001900D920020E1F708952091C60230915F
:1002A000C7022230310591F4FC01EE0FFF1FE80F69
:1002B000F91FEE0FFF1FDF01AC5EBC4F2D913C918B
:1002C0001197EA5EFC4F808191811EC02330310579
:1002D00039F5FC01EE0FFF1FE80FF91FEE0FFF1FAE
:1002E000DF01AC5EBC4F2D913C911197EA5EFC4F53
:1002F0008081918128173907A1F42D913C911197A4
:1003000014968D919C9115972817390751F48D916A
:100310009C9140E0892B09F441E081E0482702C02C
:10032000089540E0842F08956B3821E0720720E0A3
:10033000820720E0920758F0603E21E0720720E03B
:10034000820720E09207F0F426E030E05DC06D35D2
:1003500021E0720720E0820720E0920758F064381D
:1003600021E0720720E0820720E0920758F425E0A0
:1003700030E04AC06F3221E0720720E0820720E0BF
:10038000920758F0663521E0720720E0820720E0EE
:10039000920758F424E030E037C0613021E0720762
:1003A00020E0820720E0920758F0683221E07207CF
:1003B00020E0820720E0920740F423E030E024C0F0
:1003C000633D71058105910540F06A3F7105810526
:1003D000910540F422E030E017C0653A71058105CF
:1003E000910580F06C3C71058105910518F421E0C0
:1003F00030E00AC0615D77408040904018F020E016
:1004000030E002C027E030E0C90108958130910555
:1004100049F46F5F7F4F79F489EA92E060E072E01F
:100420000C941915892B39F46F5F7F4F21F489EAF9
:1004300092E00C946715089580E090E06FEF7FEFF5
:10044000E5CF81E090E06FEF7FEFE0CFCF92DF92DA
:10045000EF92FF920F931F93DF93CF93CDB7DEB749
:100460007C01CDB6DEB68091A80290E02DB73EB7F4
:10047000281B390B0FB6F8943EBF0FBE2DBF0DB72A
:100480001EB70F5F1F4F20E030E006C0F801E20FFB
:10049000F31F10822F5F3F4F28173907BCF389EAFB
:1004A00092E060E072E00E9432158CE695E00E94D6
:1004B0001411181619069CF44091A8028CE695E0D8
:1004C000B80150E00E94591489EA92E0B8010E94F4
:1004D0003215C70169EA72E00E945E1505C0C701C6
:1004E00061E072E00E941915C7010FB6F894DEBEF4
:1004F0000FBECDBECF91DF911F910F91FF90EF9076
:10050000DF90CF900895EF92FF920F931F93DF93A8
:10051000CF93CDB7DEB727970FB6F894DEBF0FBEE7
:10052000CDBF7E010894E11CF11CC7018FDFC7011C
:1005300061E072E00E949114882309F0F8C0C701BD
:1005400060E070E00E947C14FC018081803241F404
:1005500089E060E00E94EC0D8BE060E00E94EC0D11
:10056000CE01019660E070E00E947C14FC01808165
:10057000883341F489E061E00E94EC0D8BE061E09A
:100580000E94EC0DCE01019660E070E00E947C14A8
:10059000FC018081883241F489E060E00E94EC0D2A
:1005A0008BE061E00E94EC0DCE01019660E070E00E
:1005B0000E947C14FC018081803341F489E061E079
:1005C0000E94EC0D8BE060E00E94EC0D8E010F5F4D
:1005D0001F4FC80160E070E00E947C14FC01808124
:1005E000E82EFF24E7FCF09487E0E822FF24C8010E
:1005F00060E070E00E947C14FC018081807C09F442
:100600003FC081E0E816F10429F4F092DB02E092A9
:10061000DA0221C082E0E816F10439F481E090E0CA
:100620009093D9028093D80221C083E0E816F104A8
:1006300039F481E090E09093D7028093D60220C0F5
:1006400084E0E816F10439F481E090E09093D5025B
:100650008093D40215C085E0E816F10439F481E0F6
:1006600090E09093D3028093D2020AC086E0E8160D
:10067000F10431F481E090E09093DF028093DE0298
:10068000CE01019660E070E00E947C14FC01808144
:10069000992787FD909556E0959587955A95E1F7AE
:1006A000892B09F044C081E0E816F10449F4109266
:1006B000DB021092DA0288E060E00E94EC0D21C0BB
:1006C00082E0E816F10449F41092D9021092D8029F
:1006D00087E060E00E94EC0D1EC083E0E816F104A4
:1006E00031F41092D7021092D60286E01DC084E049
:1006F000E816F10431F41092D5021092D40285E08C
:1007000013C085E0E816F10431F41092D302109280
:10071000D20284E009C086E0E816F10441F41092A8
:10072000DF021092DE028AE060E00E94EC0DCE0152
:1007300001960E94671527960FB6F894DEBF0FBE8C
:10074000CDBFCF91DF911F910F91FF90EF90089552
:1007500086E361E00E94EC0D60ED77E080E090E0E0
:100760000E947E0C87E361E00E94EC0D60ED77E073
:1007700080E090E00E947E0C88E361E00E94EC0D36
:1007800060ED77E080E090E00E947E0C89E361E01C
:100790000E94EC0D60ED77E080E090E00E947E0C1E
:1007A0008AE361E00E94EC0D60ED77E080E090E08C
:1007B0000E947E0C8BE361E00E94EC0D60ED77E01F
:1007C00080E090E00E947E0C84E061E00E94EC0DED
:1007D00060ED77E080E090E00E947E0C85E061E0D3
:1007E0000E94EC0D60ED77E080E090E00E947E0CCE
:1007F00086E061E00E94EC0D60ED77E080E090E043
:100800000E947E0C87E061E00E94EC0D60ED77E0D5
:1008100080E090E00E947E0C88E061E00E94EC0D98
:1008200060ED77E080E090E00E947E0C89E061E07E
:100830000E94EC0D60ED77E080E090E00E947E0C7D
:100840008AE061E00E94EC0D60ED77E080E090E0EE
:100850000E947E0C8BE061E00E94EC0D60ED77E081
:1008600080E090E00E947E0C86E360E00E94EC0D48
:1008700060ED77E080E090E00E947E0C87E360E02E
:100880000E94EC0D60ED77E080E090E00E947E0C2D
:1008900088E360E00E94EC0D60ED77E080E090E09E
:1008A0000E947E0C89E360E00E94EC0D60ED77E031
:1008B00080E090E00E947E0C8AE360E00E94EC0DF4
:1008C00060ED77E080E090E00E947E0C8BE360E0DA
:1008D0000E94EC0D60ED77E080E090E00E947E0CDD
:1008E00084E060E00E94EC0D60ED77E080E090E055
:1008F0000E947E0C85E060E00E94EC0D60ED77E0E8
:1009000080E090E0FBD786E060E00E94EC0D60EDB7
:1009100077E080E090E0F2D787E060E00E94EC0DA5
:1009200060ED77E080E090E0E9D788E060E00E9449
:10093000EC0D60ED77E080E090E0E0D789E060E0EA
:100940000E94EC0D60ED77E080E090E0D7D78AE080
:1009500060E00E94EC0D60ED77E080E090E0CED7A3
:100960008BE060E00C94EC0D0F931F93CF93DF931B
:1009700090E080912603882309F491E09093260368
:10098000C2EDD2E014E088819981019729F4812F8A
:10099000609126030E94EC0D22961F5F1D3099F78F
:1009A0000AEB12E0C0E0D0E0F801808191811816D6
:1009B00019060CF051C0019791838083C230D10594
:1009C00031F1C330D1053CF4209779F0C130D10525
:1009D00009F042C013C0C430D10559F1C430D1056B
:1009E000FCF0C530D105C1F52DC086E30E941E0E76
:1009F00060E0892B09F461E086E32CC087E30E9464
:100A00001E0E60E0892B09F461E087E323C088E3D0
:100A10000E941E0E60E0892B09F461E088E31AC091
:100A200089E30E941E0E60E0892B09F461E089E3EE
:100A300011C08AE30E941E0E60E0892B09F461E078
:100A40008AE308C08BE30E941E0E60E0892B09F444
:100A500061E08BE30E94EC0D21960E5F1F4FC630C4
:100A6000D10509F0A1CFDF91CF911F910F9108958A
:100A7000EF92FF920F931F93E0908302F090840215
:100A80000091850210918602E114F104010511051F
:100A900039F100D728EC30E040E050E0E20EF31EE0
:100AA000041F151FE616F7060807190798F460914A
:100AB0008B0270918C0280E042E050E073D410927F
:100AC0008302109284021092850210928602109284
:100AD000B80206C0DFD6683C71058105910538F380
:100AE000E0908702F09088020091890210918A02BA
:100AF000E114F1040105110531F1CCD628EC30E008
:100B000040E050E0E20EF31E041F151FE616F70644
:100B10000807190730F0BED6683C710581059105BC
:100B200090F460918D0270918E0281E042E050E07D
:100B300039D4109287021092880210928902109282
:100B40008A021092B9021F910F91FF90EF900895C1
:100B5000DADC8ECFCF92DF92EF92FF920F931F934A
:100B6000CF93DF936C01A4D6F601EE0FFF1FEE0FBB
:100B7000FF1FDF01A450BD4F6D937D938D939C9318
:100B800013976D917D918D919C911397EC51FD4F31
:100B9000E080F180028113812D913D914D915C9116
:100BA00020833183428353836E197F09800B910B1D
:100BB000BBDBEC01F601EE0FFF1FDF01A05EBC4FB7
:100BC0008D919C911197EC0DFD1DE80FF91FEE0F13
:100BD000FF1FEC5EFC4FD183C0830D90BC91A02D14
:100BE0008091C6029091C7020197A817B90719F41E
:100BF000A0E0B0E001C01196C601880F991FFC016A
:100C0000E05EFC4FB183A083209719F0C730D10577
:100C1000A1F4FC01EC0DFD1DEE0FFF1FDF01AC5E2A
:100C2000BC4F11961C921E92EA5EFC4F11821082FC
:100C300015961C921E9214973FC0C6012EDB813080
:100C4000D9F528D6F601EE0FFF1FEE0FFF1FED5767
:100C5000FD4F60837183828393838C2D1FD48CE638
:100C600095E0BE014AE050E00E9406148091C8025F
:100C70009091C902009749F4CC0FDD1FC854DD4F95
:100C8000C6010196880F991F0EC0019771F4C11417
:100C9000D10419F082E090E002C084E090E0CC0F33
:100CA000DD1FC854DD4F9983888388EB92E0C80E1E
:100CB000D91E81E0F6018083DF91CF911F910F91C2
:100CC000FF90EF90DF90CF9008958091B902882334
:100CD00019F481E090E03ECF08958091B802882316
:100CE00019F480E090E036CF08958CE695E040E07E
:100CF00056E960E070E00E948E108CE695E044E6D4
:100D000050E060E070E00E942914F8948BE293E0D8
:100D100062E070E02FD19093B1028093B0028BE239
:100D200093E062E070E026D19093B3028093B20228
:100D30008BE293E062E070E01DD19093B502809366
:100D4000B4028BE293E062E070E014D19093B702BA
:100D50008093B60282E060E08CD682E061E03CD70E
:100D600083E060E086D683E061E036D786E361E029
:100D700080D687E361E07DD688E361E07AD689E3B7
:100D800061E077D68AE361E074D68BE361E071D6E7
:100D900084E061E06ED685E061E06BD686E061E0DC
:100DA00068D687E061E065D688E061E062D689E0D8
:100DB00061E05FD68AE061E05CD68BE061E059D605
:100DC00057DEC6DC8DE293E040EE53E964E070E06C
:100DD00090D18DE293E064EB74E02FEF3FEF4FEFA3
:100DE0005FEF8DD16091B0027091B1028BE293E020
:100DF0004DD09093C7028093C6020297029778F075
:100E000082E090E09093C7028093C6026091B002A6
:100E10007091B1028BE293E042E050E082D06091A9
:100E2000B6027091B7028BE293E030D09093C90282
:100E30008093C802029768F01092C9021092C8020B
:100E40006091B0027091B1028BE293E040E050E01B
:100E500068D081E08093A8027894089584E690E0B9
:100E600090932C0380932B03089580918F0290918F
:100E700090028617970714F081E008958CE695E0BC
:100E800069E072E00E94181480E00895CF93DF9328
:100E9000EB016E5F7F4FE9DF882319F420E030E03B
:100EA00011C0F999FECFD2BDC1BDF89A90B5F9999C
:100EB000FECF2196D2BDC1BDF89A80B5292F382F1B
:100EC000C9019C01C901DF91CF910895FC01809176
:100ED000290390912A03019690932A038093290372
:100EE0000190F081E02D309719F0E817F90744F4EC
:100EF0008CE695E063E372E00E94181480E00895A8
:100F000080918F02909190028617970714F081E0EC
:100F100008958CE695E069E072E00E94181480E084
:100F200008950F931F93CF93DF93EB01142F052F99
:100F30006E5F7F4FCBDF8823C1F0F999FECF1FBAD8
:100F4000D2BDC1BD10BD0FB6F894FA9AF99A0FBE82
:100F5000F999FECF1FBA2196D2BDC1BD00BD0FB613
:100F6000F894FA9AF99A0FBE81E0DF91CF911F9120
:100F70000F910895CF93DF93C0912703D091280359
:100F80006C0F7D1F709328036093270380918F025D
:100F900090919002861797074CF48CE695E069E0F3
:100FA00072E00E941814D095C195DF4FCE01DF91F9
:100FB000CF9108951F920F920FB60F920BB60F921A
:100FC00011242F933F934F935F936F937F938F934E
:100FD0009F93AF93BF93EF93FF93E0913103F09111
:100FE00032031995FF91EF91BF91AF919F918F912E
:100FF0007F916F915F914F913F912F910F900BBE19
:101000000F900FBE0F901F901895FC01A3E0440FA6
:10101000551F661F771FAA95D1F7403080E058070B
:1010200081E0680780E0780714F481E010C033E0C5
:1010300075956795579547953A95D1F7403080E07B
:10104000580781E0680780E078071CF482E082831B
:1010500039C023E075956795579547952A95D1F73F
:10106000403080E0580781E0680780E0780714F49A
:1010700083E0EDCF92E075956795579547959A95E2
:10108000D1F7403080E0580781E0680780E07807BA
:1010900014F484E0DCCF82E0759567955795479509
:1010A0008A95D1F7403080E0580781E0680780E0FA
:1010B000780714F485E0CBCF85E082834FEF5FEFB4
:1010C00060E070E08FB78383F8945183408350933E
:1010D00087004093860083818FBF80918100887F45
:1010E00080938100809181009281892B809381007F
:1010F00008951092800020E12093810086CF0F9305
:101100001F93CF93DF93EC018B0112161306140685
:1011100015061CF4BA01A90178DF1D830C8381E058
:1011200080936F00809181009A81892B8093810048
:10113000DF91CF911F910F9108950F931F93CF933C
:10114000DF93BC018230910510F462E070E0E09121
:10115000F705F091F80540E050E0A0E0B0E024C0D1
:101160008081918186179707D0F08617970771F4D1
:1011700082819381109729F013969C938E931297F6
:101180002CC09093F8058093F70527C041155105B1
:1011900019F08417950718F48D01AC01EF01DF01F8
:1011A000828193819C01F9013097D1F64115510557
:1011B000F9F0CA01861B970B8430910580F48A816F
:1011C0009B810115110521F0F8019383828304C0EE
:1011D0009093F8058093F705FE01329645C0FE0115
:1011E000E80FF91F619371930297998388833CC03C
:1011F0008091F5059091F605892B41F48091930239
:10120000909194029093F6058093F5054091950294
:10121000509196024115510541F44DB75EB780914A
:10122000910290919202481B590B2091F505309143
:10123000F60524173507B0F4CA01821B930B8617F5
:10124000970780F0AB014E5F5F4F8417950750F012
:10125000420F531F5093F6054093F505F901619332
:10126000719302C0E0E0F0E0CF01DF91CF911F91D8
:101270000F910895CF93DF939C01009709F48FC0DD
:10128000EC0122971B821A826091F7057091F80594
:101290006115710581F488819981820F931F2091D6
:1012A000F5053091F6052817390739F5D093F6057D
:1012B000C093F50574C0DB0140E050E0AC17BD07FA
:1012C00008F1BB83AA83FE0121913191E20FF31F44
:1012D000AE17BF0779F48D919C911197280F391F94
:1012E0002E5F3F4F3983288312968D919C911397DF
:1012F0009B838A834115510571F4D093F805C093FF
:10130000F7054DC012968D919C911397AD010097F2
:1013100011F0DC01D3CFDA011396DC93CE93129750
:10132000FA0121913191E20FF31FCE17DF0769F423
:1013300088819981280F391F2E5F3F4FFA01318331
:1013400020838A819B8193838283E0E0F0E0DB014C
:1013500012968D919C911397009719F0BC01FD0195
:10136000F6CFAB014E5F5F4FDB018D919C91840FF7
:10137000951F2091F5053091F6052817390779F466
:10138000309729F41092F8051092F70502C01382E5
:101390001282425050405093F6054093F505DF917C
:1013A000CF910895883008F078C0E82FF0E0EE0F74
:1013B000FF1FED5CFC4F718360838330D9F0843074
:1013C00030F4813009F444C0823060F439C0853093
:1013D00051F18530D8F0863009F446C0873009F0E5
:1013E0005CC04FC0809169008C7F842B8093690022
:1013F000E89A089580916900440F551F440F551FC6
:10140000837F842B80936900E99A08958091690015
:1014100074E0440F551F7A95E1F78F7C842B8093FD
:101420006900EA9A08958091690066E0440F551FAB
:101430006A95E1F78F73842B80936900EB9A089586
:1014400080916A008C7F842B80936A00EC9A0895C7
:1014500080916A00440F551F440F551F837F842BD2
:1014600080936A00ED9A089580916A0024E0440F09
:10147000551F2A95E1F78F7C842B80936A00EE9AA2
:10148000089580916A0096E0440F551F9A95E1F700
:101490008F73842B80936A00EF9A0895883048F503
:1014A000833091F0843028F48130B1F0823050F4F0
:1014B00011C0853069F0853048F0863079F087308A
:1014C00081F40EC0E8980DC0E9980BC0EA9809C0F5
:1014D000EB9807C0EC9805C0ED9803C0EE9801C0EA
:1014E000EF98E82FF0E0EE0FFF1FED5CFC4F11824C
:1014F000108208951F920F920FB60F920BB60F92A3
:1015000011242F933F934F935F936F937F938F9308
:101510009F93AF93BF93EF93FF9380913703909185
:101520003803892B29F0E0913703F091380319959E
:10153000FF91EF91BF91AF919F918F917F916F91AB
:101540005F914F913F912F910F900BBE0F900FBE67
:101550000F901F9018951F920F920FB60F920BB617
:101560000F9211242F933F934F935F936F937F9329
:101570008F939F93AF93BF93EF93FF938091390322
:1015800090913A03892B29F0E0913903F0913A03C5
:101590001995FF91EF91BF91AF919F918F917F919D
:1015A0006F915F914F913F912F910F900BBE0F90D4
:1015B0000FBE0F901F9018951F920F920FB60F92AB
:1015C0000BB60F9211242F933F934F935F936F931A
:1015D0007F938F939F93AF93BF93EF93FF938091EC
:1015E0003B0390913C03892B29F0E0913B03F09160
:1015F0003C031995FF91EF91BF91AF919F918F910E
:101600007F916F915F914F913F912F910F900BBE02
:101610000F900FBE0F901F9018951F920F920FB64C
:101620000F920BB60F9211242F933F934F935F931A
:101630006F937F938F939F93AF93BF93EF93FF939A
:1016400080913D0390913E03892B29F0E0913D0369
:10165000F0913E031995FF91EF91BF91AF919F914A
:101660008F917F916F915F914F913F912F910F904B
:101670000BBE0F900FBE0F901F9018951F920F92E8
:101680000FB60F920BB60F9211242F933F934F93E7
:101690005F936F937F938F939F93AF93BF93EF93DA
:1016A000FF938091330390913403892B29F0E091CB
:1016B0003303F09134031995FF91EF91BF91AF91EE
:1016C0009F918F917F916F915F914F913F912F915A
:1016D0000F900BBE0F900FBE0F901F9018951F928A
:1016E0000F920FB60F920BB60F9211242F933F93C8
:1016F0004F935F936F937F938F939F93AF93BF931A
:10170000EF93FF938091350390913603892B29F055
:10171000E0913503F09136031995FF91EF91BF9158
:10172000AF919F918F917F916F915F914F913F9179
:101730002F910F900BBE0F900FBE0F901F9018951A
:101740001F920F920FB60F920BB60F9211242F9388
:101750003F934F935F936F937F938F939F93AF9339
:10176000BF93EF93FF9380913F0390914003892BA8
:1017700029F0E0913F03F09140031995FF91EF911B
:10178000BF91AF919F918F917F916F915F914F9199
:101790003F912F910F900BBE0F900FBE0F901F9097
:1017A00018951F920F920FB60F920BB60F9211243D
:1017B0002F933F934F935F936F937F938F939F9359
:1017C000AF93BF93EF93FF938091410390914203B6
:1017D000892B29F0E0914103F09142031995FF9183
:1017E000EF91BF91AF919F918F917F916F915F9199
:1017F0004F913F912F910F900BBE0F900FBE0F9006
:101800001F9018951F920F920FB60F9211242F93CD
:101810003F938F939F93AF93BF9380914703909192
:101820004803A0914903B0914A0330914B030196BC
:10183000A11DB11D232F2D5F2D3720F02D570196AF
:10184000A11DB11D20934B03809347039093480340
:10185000A0934903B0934A038091430390914403BA
:10186000A0914503B09146030196A11DB11D80933F
:10187000430390934403A0934503B0934603BF9161
:10188000AF919F918F913F912F910F900FBE0F902D
:101890001F9018958FB7F894209147033091480313
:1018A0004091490350914A038FBFB901CA0108957D
:1018B0009FB7F8942091430330914403409145032E
:1018C0005091460386B5A89B06C08F3F21F02F5F3D
:1018D0003F4F4F4F5F4F9FBF542F432F322F222731
:1018E000280F311D411D511D82E0220F331F441F5F
:1018F000551F8A95D1F7B901CA0108959B01AC0122
:101900007FB7F8948091430390914403A0914503DD
:10191000B091460366B5A89B05C06F3F19F00196CC
:10192000A11DB11D7FBFBA2FA92F982F8827860F21
:10193000911DA11DB11D62E0880F991FAA1FBB1F39
:101940006A95D1F7BC012DC0FFB7F894809143038D
:1019500090914403A0914503B0914603E6B5A89B3E
:1019600005C0EF3F19F00196A11DB11DFFBFBA2FB1
:10197000A92F982F88278E0F911DA11DB11DE2E080
:10198000880F991FAA1FBB1FEA95D1F7861B970BDB
:10199000885E9340C8F2215030404040504068512A
:1019A0007C4F211531054105510571F60895789454
:1019B00084B5826084BD84B5816084BD85B5826054
:1019C00085BD85B5816085BDEEE6F0E080818160F2
:1019D0008083E1E8F0E010828081826080838081F2
:1019E00081608083E0E8F0E0808181608083E1EBCA
:1019F000F0E0808184608083E0EBF0E080818160B2
:101A00008083E1E9F0E08081826080838081816071
:101A10008083E0E9F0E0808181608083E1EAF0E0AA
:101A2000808182608083808181608083E0EAF0E051
:101A3000808181608083E1E2F1E080818260808347
:101A4000808181608083E0E2F1E080818160808339
:101A5000EAE7F0E080818460808380818260808317
:101A60008081816080838081806880831092C10042
:101A70000895CF93DF93482F50E0CA0188589E4FB6
:101A8000FC0134914E5C5E4FFA018491882369F128
:101A900090E0880F991FFC01EC51FF4FA591B49184
:101AA000FC01E250FF4FC591D491662351F42FB74A
:101AB000F8948C91932F909589238C938881892316
:101AC0000BC0623061F42FB7F8948C91932F9095EE
:101AD00089238C938881832B88832FBF06C09FB76F
:101AE000F8948C91832B8C939FBFDF91CF910895B5
:101AF000893009F449C08A30A0F4843051F185302E
:101B000040F4823079F1833000F5813009F063C010
:101B100026C0873079F1883098F5863009F05BC0AF
:101B200025C08D3009F442C08E3028F48B30B1F1DD
:101B30008C30C0F52DC0803109F442C0813109F4E8
:101B400045C08F3009F047C037C0809180008F7743
:101B500003C0809180008F7D80938000089584B5BC
:101B60008F7702C084B58F7D84BD08958091B000C9
:101B70008F7703C08091B0008F7D8093B00008956F
:101B8000809190008F7707C0809190008F7D03C077
:101B900080919000877F8093900008958091A000AD
:101BA0008F7707C08091A0008F7D03C08091A00037
:101BB000877F8093A0000895809120018F7703C0D4
:101BC000809120018F7D80932001089580912001D4
:101BD000877F809320010895FF920F931F93F62E25
:101BE000482F50E0CA0182549E4FFC012491CA0143
:101BF00088589E4FFC0114914E5C5E4FFA0104918F
:101C00000023C1F0222311F0822F72DFE02FF0E0D9
:101C1000EE0FFF1FE250FF4FA591B4919FB7F894CC
:101C2000FF2021F48C911095812302C08C91812B8F
:101C30008C939FBF1F910F91FF9008950F931F9357
:101C4000482F50E0CA0182549E4FFC012491CA01E2
:101C500088589E4FFC0104914E5C5E4FFA0114912E
:101C6000112319F420E030E014C0222311F0822F58
:101C70003FDF812F90E0880F991F885E9E4FFC0107
:101C8000A591B4918C9120E030E0802311F021E007
:101C900030E0C9011F910F91089508951F920F928E
:101CA0000FB60F920BB60F9211242F933F934F93C1
:101CB0008F939F93EF93FF938091C00082FD1DC08F
:101CC0004091C60020918C0330918D032F5F3F4FD0
:101CD0002F73307080918E0390918F0328173907EE
:101CE00071F0E0918C03F0918D03E45BFC4F408335
:101CF00030938D0320938C0302C08091C600FF9126
:101D0000EF919F918F914F913F912F910F900BBE2B
:101D10000F900FBE0F901F90189508951F920F926D
:101D20000FB60F920BB60F9211242F933F934F9340
:101D30008F939F93EF93FF938091C80082FD1DC006
:101D40004091CE0020911404309115042F5F3F4F35
:101D50002F7330708091160490911704281739075B
:101D600071F0E0911404F0911504EC52FC4F4083A3
:101D7000309315042093140402C08091CE00FF918B
:101D8000EF919F918F914F913F912F910F900BBEAB
:101D90000F900FBE0F901F90189508951F920F92ED
:101DA0000FB60F920BB60F9211242F933F934F93C0
:101DB0008F939F93EF93FF938091D00082FD1DC07E
:101DC0004091D60020919C0430919D042F5F3F4F9D
:101DD0002F73307080919E0490919F0428173907CB
:101DE00071F0E0919C04F0919D04E45AFB4F408314
:101DF00030939D0420939C0402C08091D600FF91F3
:101E0000EF919F918F914F913F912F910F900BBE2A
:101E10000F900FBE0F901F90189508951F920F926C
:101E20000FB60F920BB60F9211242F933F934F933F
:101E30008F939F93EF93FF938091300182FD1DC09C
:101E40004091360120912405309125052F5F3F4FA9
:101E50002F73307080912605909127052817390738
:101E600071F0E0912405F0912505EC51FB4F408382
:101E7000309325052093240502C080913601FF91FF
:101E8000EF919F918F914F913F912F910F900BBEAA
:101E90000F900FBE0F901F901895E0917805F0916C
:101EA0007905E05CFF4F8191919120813181821B06
:101EB000930B8F739070892B09F0EFDEE0919A05F8
:101EC000F0919B05E05CFF4F8191919120813181E0
:101ED000821B930B8F739070892B09F01EDFE091AA
:101EE000BC05F091BD05E05CFF4F8191919120818F
:101EF0003181821B930B8F739070892B09F04DDF1A
:101F0000E091DE05F091DF05E05CFF4F819191915A
:101F100020813181821B930B8F739070892B09F084
:101F20007CCF08951F920F920FB60F920BB60F92AF
:101F300011242F933F938F939F93EF93FF932091BF
:101F4000D0033091D1038091D2039091D30328170D
:101F5000390731F48091C1008F7D8093C10014C096
:101F6000E091D203F091D303E057FC4F20818091A0
:101F7000D2039091D30301968F7390709093D30303
:101F80008093D2032093C600FF91EF919F918F9190
:101F90003F912F910F900BBE0F900FBE0F901F908F
:101FA00018951F920F920FB60F920BB60F92112435
:101FB0002F933F938F939F93EF93FF932091580418
:101FC0003091590480915A0490915B042817390785
:101FD00031F48091C9008F7D8093C90014C0E091D5
:101FE0005A04F0915B04E85EFB4F208180915A0413
:101FF00090915B0401968F73907090935B04809333
:102000005A042093CE00FF91EF919F918F913F91C1
:102010002F910F900BBE0F900FBE0F901F90189531
:102020001F920F920FB60F920BB60F9211242F939F
:102030003F938F939F93EF93FF932091E004309110
:10204000E1048091E2049091E3042817390731F408
:102050008091D1008F7D8093D10014C0E091E20483
:10206000F091E304E056FB4F20818091E2049091CF
:10207000E30401968F7390709093E3048093E204DD
:102080002093D600FF91EF919F918F913F912F91D7
:102090000F900BBE0F900FBE0F901F9018951F92C0
:1020A0000F920FB60F920BB60F9211242F933F93FE
:1020B0008F939F93EF93FF9320916805309169056B
:1020C00080916A0590916B052817390731F480914A
:1020D00031018F7D8093310114C0E0916A05F09148
:1020E0006B05E85DFA4F208180916A0590916B0540
:1020F00001968F73907090936B0580936A0520937F
:102100003601FF91EF919F918F913F912F910F9009
:102110000BBE0F900FBE0F901F901895AF92BF92FD
:10212000DF92EF92FF920F931F93CF93DF93EC0117
:102130007A018B01DD24403081EE580780E068078A
:1021400080E0780711F0DD24D39491E0A92EB12C22
:10215000EC89FD89DD2069F0C50108A002C0880F67
:10216000991F0A94E2F7808360E079E08DE390E0C4
:1021700005C0108260E874E88EE190E0A801970144
:10218000ABD521503040404050405695479537954B
:10219000279580E12030380720F0DD2011F0DD2484
:1021A000D7CFE889F9893083EA89FB89208319A28E
:1021B000EE89FF89408121E030E0C9010C8C02C02A
:1021C000880F991F0A94E2F7482B4083EE89FF8914
:1021D0004081C9010D8C02C0880F991F0A94E2F753
:1021E000482B4083EE89FF894081C9010E8C02C0D3
:1021F000880F991F0A94E2F7482B4083EE89FF89E4
:1022000080810F8C02C0220F331F0A94E2F72095C1
:1022100028232083DF91CF911F910F91FF90EF90A2
:10222000DF90BF90AF900895DC011C96ED91FC917A
:102230001D97E05CFF4F2191319180819181281B96
:10224000390B2F733070C9010895DC011C96ED9194
:10225000FC911D97E05CFF4F20813181E054F040FC
:10226000DF01AE5BBF4F8D919C9111972817390705
:1022700019F42FEF3FEF07C08D919C91E80FF91FE4
:102280008081282F30E0C9010895DC011C96ED9172
:10229000FC911D97E05CFF4F20813181E054F040BC
:1022A000DF01AE5BBF4F8D919C91119728173907C5
:1022B00019F42FEF3FEF10C08D919C911197E80F0B
:1022C000F91F20818D919C91119701968F739070C9
:1022D00011969C938E9330E0C9010895DC0191968C
:1022E0008C919197882339F05496ED91FC915597F4
:1022F000808186FFF9CF91961C920895CF93DF934A
:10230000EC01EE85FF85E05CFF4F20813181E054D8
:10231000F0402F5F3F4F2F733070DF01AE5BBF4F38
:102320008D919C91119728173907D1F3E05CFF4FED
:1023300080819181E054F040E80FF91F6083EE85C1
:10234000FF85E05CFF4F31832083EE89FF89208188
:1023500081E090E00F8C02C0880F991F0A94E2F789
:10236000282B208381E089A3EC89FD89808180640A
:10237000808381E090E0DF91CF9108951F931092C8
:102380006F0510926E0528EE33E040E050E0209398
:1023900070053093710540937205509373056BE996
:1023A00072E070936D0560936C058CE493E09093FC
:1023B00079058093780580E993E090937B0580937D
:1023C0007A0585EC90E090937D0580937C0584EC04
:1023D00090E090937F0580937E0580EC90E0909351
:1023E00081058093800581EC90E090938305809334
:1023F000820582EC90E0909385058093840586ECBD
:1024000090E0909387058093860514E010938805EB
:10241000B3E0B0938905A7E0A0938A05F5E0F093B7
:102420008B05E1E0E0938C051092910510929005E8
:10243000209392053093930540939405509395050E
:1024400070938F0560938E0584ED93E090939B05C8
:1024500080939A0588E194E090939D0580939C0574
:102460008DEC90E090939F0580939E058CEC90E01E
:102470009093A1058093A00588EC90E09093A3052C
:102480008093A20589EC90E09093A5058093A40524
:102490008AEC90E09093A7058093A6058EEC90E0DF
:1024A0009093A9058093A8051093AA05B093AB0556
:1024B000A093AC05F093AD05E093AE051092B30583
:1024C0001092B2052093B4053093B5054093B6053C
:1024D0005093B7057093B1056093B0058CE594E017
:1024E0009093BD058093BC0580EA94E09093BF056E
:1024F0008093BE0585ED90E09093C1058093C00563
:1025000084ED90E09093C3058093C20580ED90E048
:102510009093C5058093C40581ED90E09093C70525
:102520008093C60582ED90E09093C9058093C8051D
:1025300086ED90E09093CB058093CA051093CC056F
:10254000B093CD05A093CE05F093CF05E093D005D1
:102550001092D5051092D4052093D6053093D70557
:102560004093D8055093D9057093D3056093D20555
:1025700084EE94E09093DF058093DE0588E295E099
:102580009093E1058093E00585E391E09093E30566
:102590008093E20584E391E09093E5058093E40560
:1025A00080E391E09093E7058093E60581E391E075
:1025B0009093E9058093E80582E391E09093EB0521
:1025C0008093EA0586E391E09093ED058093EC0516
:1025D0001093EE05B093EF05A093F005F093F1058D
:1025E000E093F2051F910895CF93DF93E0D90E9405
:1025F0007506CDE4DFE00E94A8052097E1F34DDCED
:10260000FACFCF92DF92EF92FF920F931F93CF9367
:10261000DF937C016B018A01C0E0D0E00FC0D601DE
:102620006D916D01D701ED91FC910190F081E02D4C
:10263000C7011995C80FD91F015010400115110588
:1026400071F7CE01DF91CF911F910F91FF90EF9025
:10265000DF90CF900895EF92FF920F931F938C011C
:10266000DC01ED91FC910190F081E02D6DE0199578
:102670007C01D801ED91FC910190F081E02DC80121
:102680006AE019959C012E0D3F1DC9011F910F9104
:10269000FF90EF900895CF93DF93EC0161157105E2
:1026A00019F420E030E00FC0DB010D900020E9F7C5
:1026B0001197A61BB70BE881F9810280F381E02D09
:1026C000AD0119959C01C901DF91CF9108954F92F9
:1026D0005F927F928F929F92AF92BF92CF92DF9242
:1026E000EF92FF920F931F93DF93CF93CDB7DEB797
:1026F000A1970FB6F894DEBF0FBECDBF2C01742E8C
:10270000CB01223008F42AE019A231E2C32ED12CE9
:10271000CC0EDD1E822E9924AA24BB24672D752F92
:10272000A5019401D9D279018A01C801B701A50197
:102730009401B3D2472D461B0894C108D1084A30F2
:1027400014F4405D01C0495CF6014083E114F104DA
:102750000105110521F07E2C5F2DC801DFCFC201DC
:10276000B60199DFA1960FB6F894DEBF0FBECDBFBC
:10277000CF91DF911F910F91FF90EF90DF90CF905D
:10278000BF90AF909F908F907F905F904F900895F3
:10279000CF92DF92EF92FF920F931F93CF93DF932D
:1027A000EC016A017B012115310541F4E881F981D1
:1027B0000190F081E02D642F19951DC02A3031055C
:1027C000C9F477FF16C0E881F9810190F081E02D0E
:1027D0006DE219958C0144275527BA014C195D0902
:1027E0006E097F09CE012AE072DF9801280F391F98
:1027F00003C02AE06CDF9C01C901DF91CF911F91DA
:102800000F91FF90EF90DF90CF900895EF92FF929D
:102810000F931F937B019A010027F7FC0095102F5F
:10282000B801A701B5DF1F910F91FF90EF900895B8
:10283000EF92FF920F931F937C012DDF8C01C70154
:102840000ADF080F191FC8011F910F91FF90EF9029
:102850000895FC0144835583668377830895CF935D
:10286000DF93EC0117D8688779878A879B87E8818F
:10287000F9810680F781E02DCE0119959C0197FF23
:1028800014C008D8288539854A855B85621B730B7F
:10289000840B950B2C813D814E815F8162177307FC
:1028A0008407950720F32FEF3FEFC901DF91CF9108
:1028B0000895CF92DF92EF92FF920F931F93CF93E1
:1028C000DF936C018B017A01C0E0D0E008C0C60143
:1028D000C6DF97FD07C0F80181938F012196CE15C1
:1028E000DF05A8F3CE01DF91CF911F910F91FF90EB
:1028F000EF90DF90CF900895FC019B01848195813A
:102900006817790728F4608171816115710529F4D0
:102910001092F40564EF75E002C0620F731FCB01E3
:102920000895DC01FB0114968D919C911597892BDC
:1029300031F461157105A9F090E0808108C00D9017
:10294000BC91A02D6115710529F490E08C9188232C
:1029500049F407C0CD010E943D019C0190E0232B6A
:1029600009F491E0892F08950F931F93CF93DF937C
:10297000EC018B016F5F7F4F88819981ADD000970B
:1029800011F480E005C0998388831B830A8381E06A
:10299000DF91CF911F910F910895CF93DF93EC01B9
:1029A00088819981892B29F08A819B8186179707D5
:1029B00058F4CE01D9DF882341F08C819D81892B89
:1029C00019F4E881F981108281E0DF91CF910895B7
:1029D000CF93DF93EC0188819981009711F00E94D9
:1029E0003A09198218821D821C821B821A82DF9189
:1029F000CF910895EF92FF920F931F93CF93DF93A0
:102A0000EC017B018A01BA01C8DF882319F4CE01E9
:102A1000DFDF07C01D830C8388819981B7010E9485
:102A20004601CE01DF91CF911F910F91FF90EF9062
:102A30000895CF93DF93EC01198218821B821A82CA
:102A40001D821C821E826115710549F0DB010D900B
:102A50000020E9F71197A61BB70BAD01CBDFDF9183
:102A6000CF9108950F931F93182F092F61157105AA
:102A700051F0DB010D900020E9F71197A61BB70B71
:102A8000AD01B8DF01C0A4DF812F902F1F910F91FE
:102A90000895CF93DF93EC01FB018617970751F060
:102AA000608171816115710521F044815581A2DF3A
:102AB00001C08EDFCE01DF91CF910895FC0111821C
:102AC000108213821282158214821682E2CFFC01D8
:102AD000808191810C943A096F927F928F929F929C
:102AE000AF92BF92CF92DF92EF92FF920F931F931C
:102AF000CF93DF938C01009729F4CB010E949D08AE
:102B00008C01BBC08EEFE82E8FEFF82EE00EF11E89
:102B10004801860E971E8E149F0408F4ACC0D7019E
:102B20004D915C91119746175707B8F04530510504
:102B300008F4A3C0CA0104978617970708F49DC03C
:102B400042505040461B570BF401419351936D93F3
:102B50007C93CF010E943A0990C05B01A41AB50A88
:102B60003801640E751EA091F705B091F805E0E0FC
:102B7000F0E0CC24DD2447C0A615B705A9F5CD911A
:102B8000DC911197CE0102968A159B0568F1CE0162
:102B90008A199B09029612962C91129713963C91D2
:102BA000059758F0F40122833383CA19DB09D183D6
:102BB000C083D7016D937C9309C04E5F5F4F4C0F6C
:102BC0005D1FF70151834083C901FC01C114D10489
:102BD00031F0D6011396FC93EE9312974EC0F0930A
:102BE000F805E093F70549C08D919C911197E8177E
:102BF000F90708F4FC016D0112968C911297139657
:102C00009C919C01D901109709F0B6CF8091F505F0
:102C10009091F60586159705E9F4E617F707D0F4C5
:102C200020919502309196022115310541F42DB77E
:102C30003EB78091910290919202281B390B821627
:102C40009306C8F49092F6058092F505F70171831A
:102C5000608313C0CB010E949D08EC01009759F0DE
:102C6000D7014D915C91B8010E943401C8010E94C6
:102C70003A098E0102C000E010E0C801DF91CF9157
:102C80001F910F91FF90EF90DF90CF90BF90AF908A
:102C90009F908F907F906F900895629FD001739F57
:102CA000F001829FE00DF11D649FE00DF11D929FE8
:102CB000F00D839FF00D749FF00D659FF00D992727
:102CC000729FB00DE11DF91F639FB00DE11DF91F4B
:102CD000BD01CF0111240895A1E21A2EAA1BBB1B2E
:102CE000FD010DC0AA1FBB1FEE1FFF1FA217B307D8
:102CF000E407F50720F0A21BB30BE40BF50B661FEE
:102D0000771F881F991F1A9469F7609570958095B1
:102D100090959B01AC01BD01CF010895EE0FFF1FFF
:102D20000590F491E02D199412E0CAE0D2E003C0BE
:102D3000FE01F6DF2296CC30D107D1F7F894FFCF11
:102D4000004E6F206461746100417474656D70742D
:102D500020746F207772697465206F75747369646D
:102D600065206F6620454550524F4D206D656D6F53
:102D70007279004578636565646564206D61786982
:102D80006D756D206E756D626572206F662077724D
:102D9000697465730043616E6E6F74206368616E61
:102DA0006765206365696C696E672C2062656C6F6E
:102DB00077206973737565642061646472657373E9
:102DC00065730001000000010000006D066506004B
:102DD000028000F9050000000000007E11011314BC
:082DE00011451125116E1100CF
:00000001FF
